:100000000C945D000C9485000C9485000C94850084
:100010000C9485000C9485000C9485000C9485004C
:100020000C9485000C9485000C9485000C94AC0312
:100030000C9485000C9485000C9485000C9485002C
:100040000C9462030C9485000C9430030C940A0306
:100050000C9485000C9485000C9485000C9485000C
:100060000C9485000C9485000000000024002700FB
:100070002A0000000000250028002B0004040404CE
:100080000404040402020202020203030303030342
:10009000010204081020408001020408102001021F
:1000A00004081020000000080002010000030407FB
:1000B0000000000000000000680411241FBECFEF04
:1000C000D8E0DEBFCDBF11E0A0E0B1E0E2E2F4E1B4
:1000D00002C005900D92A039B107D9F722E0A0E93E
:1000E000B1E001C01D92A23BB207E1F710E0CDE5FF
:1000F000D0E004C02197FE010E94DB08CC35D10777
:10010000C9F70E944F050C940F0A0C940000AF929F
:10011000BF92CF92DF92EF92FF920F931F93CF93F4
:10012000DF936C017B018B01040F151FEB015E0156
:10013000AE18BF08C017D10759F06991D601ED91EB
:10014000FC910190F081E02DC6010995892B79F78A
:10015000C501DF91CF911F910F91FF90EF90DF903C
:10016000CF90BF90AF900895FC01538D448D252F03
:1001700030E0842F90E0821B930B541710F0CF9641
:10018000089501970895FC01918D828D981761F073
:10019000A28DAE0FBF2FB11D5D968C91928D9F5F8A
:1001A0009F73928F90E008958FEF9FEF0895FC0169
:1001B000918D828D981731F0828DE80FF11D858D1C
:1001C00090E008958FEF9FEF0895FC01918D228DAF
:1001D000892F90E0805C9F4F821B91098F73992734
:1001E000089584EE91E00E94E50021E0892B09F456
:1001F00020E0822F089580E090E0892B29F00E9472
:10020000F10081110C9400000895FC01A48DA80F49
:10021000B92FB11DA35ABF4F2C91848D90E0019648
:100220008F739927848FA689B7892C93A089B18968
:100230008C91837080648C93938D848D981306C009
:100240000288F389E02D80818F7D80830895EF926D
:10025000FF920F931F93CF93DF93EC0181E0888F80
:100260009B8D8C8D98131AC0E889F989808185FF50
:1002700015C09FB7F894EE89FF896083E889F989F2
:1002800080818370806480839FBF81E090E0DF91F4
:10029000CF911F910F91FF90EF900895F62E0B8D47
:1002A00010E00F5F1F4F0F731127E02E8C8D8E1102
:1002B0000CC00FB607FCFACFE889F989808185FF69
:1002C000F5CFCE010E940501F1CFEB8DEC0FFD2F94
:1002D000F11DE35AFF4FF0829FB7F8940B8FEA8924
:1002E000FB8980818062CFCFCF93DF93EC01888D33
:1002F0008823B9F0AA89BB89E889F9898C9185FDA1
:1003000003C0808186FD0DC00FB607FCF7CF8C912E
:1003100085FFF2CF808185FFEDCFCE010E940501E0
:10032000E9CFDF91CF91089590E0FC01EC55FF4FAC
:100330002491FC01E057FF4F3491FC01E458FF4F3A
:10034000E491EE23C9F0222339F0233001F1A8F41F
:10035000213019F1223029F1F0E0EE0FFF1FEE58A5
:10036000FF4FA591B4918FB7F894EC91611126C01D
:1003700030953E233C938FBF08952730A9F0283055
:10038000C9F0243049F7809180008F7D03C08091AF
:1003900080008F7780938000DFCF84B58F7784BD16
:1003A000DBCF84B58F7DFBCF8091B0008F778093BA
:1003B000B000D2CF8091B0008F7DF9CF3E2BDACF45
:1003C0003FB7F8948091960190919701A091980180
:1003D000B091990126B5A89B05C02F3F19F0019651
:1003E000A11DB11D3FBFBA2FA92F982F8827BC018F
:1003F000CD01620F711D811D911D42E0660F771FB7
:10040000881F991F4A95D1F708952FB7F8946091E6
:1004100092017091930180919401909195012FBF69
:100420000895CF93DF93DC018C918C3008F06DC080
:10043000CB01FB01E057FF4F249184589F4FFC01F3
:100440008491882399F090E0880F991FFC01E85966
:10045000FF4FC591D491FC01EE58FF4F85919491C7
:100460008FB7F894E881E22BE8838FBF8C91282F17
:1004700030E0F901EE0FFF1FE20FF31FEF57FD4FC2
:10048000962F9F736081607C692B608311961C920C
:10049000119712961C9212972CE0622F0E94CF089F
:1004A000829FB001112430E020E0AB01420F531FC6
:1004B000FA01EE0FFF1FE40FF51FEF57FD4F90817C
:1004C00096FD16C02F5F3F4F2C30310571F781111B
:1004D0000FC01092800082E080938100109285000E
:1004E00010928400B19A80916F00826080936F00B7
:1004F000EC918E2F90E0FC01EE0FFF1FE80FF91F2B
:10050000EF57FD4F8081806480838C91DF91CF9184
:100510000895FC0101900020E9F73197AF01481BD5
:10052000590BBC0184EE91E00C9487008F929F924E
:10053000AF92BF920F931F93CF93DF93CDB7DEB7E8
:10054000A1970FB6F894DEBF0FBECDBF19A24230FF
:1005500008F44AE08E010F5D1F4F842E912CB12CC0
:10056000A12CA50194010E94AD08E62FB901CA0192
:10057000EA30F4F4E05DD801EE938D01232B242BB7
:10058000252B79F790E080E0109719F0CD010E94BB
:100590008902A1960FB6F894DEBF0FBECDBFDF91E2
:1005A000CF911F910F91BF90AF909F908F90089522
:1005B000E95CE1CFCF92DF92EF92FF92CF93DF938E
:1005C0006C01990FEE08FF08F7FE19C06DE284EE8A
:1005D00091E00E942701EC0166277727CB016C1977
:1005E0007D098E099F094AE00E9496028C0F9D1F8B
:1005F000DF91CF91FF90EF90DF90CF9008954AE088
:10060000C701B601DF91CF91FF90EF90DF90CF90BF
:100610000C9496021F920F920FB60F9211242F93F3
:100620003F934F935F936F937F938F939F93AF937A
:10063000BF93EF93FF9384EE91E00E940501FF9139
:10064000EF91BF91AF919F918F917F916F915F914A
:100650004F913F912F910F900FBE0F901F901895C3
:100660001F920F920FB60F9211242F938F939F9387
:10067000EF93FF93E091F401F091F5018081E09117
:10068000FA01F091FB0182FD1BC090818091FD0178
:100690008F5F8F732091FE01821741F0E091FD0181
:1006A000F0E0EC51FE4F958F8093FD01FF91EF91AB
:1006B0009F918F912F910F900FBE0F901F901895C3
:1006C0008081F4CF1F920F920FB60F9211242F93B7
:1006D0003F938F939F93AF93BF938091920190919B
:1006E0009301A0919401B09195013091910123E083
:1006F000230F2D3758F50196A11DB11D20939101AF
:100700008093920190939301A0939401B0939501EB
:100710008091960190919701A0919801B0919901D3
:100720000196A11DB11D8093960190939701A0930E
:100730009801B0939901BF91AF919F918F913F9193
:100740002F910F900FBE0F901F90189526E8230F42
:100750000296A11DB11DD2CF1F920F920FB60F921C
:1007600011242F933F934F935F936F937F938F93B6
:100770009F93AF93BF93CF93DF93EF93FF938091BA
:100780009001C091A502D0E087FF24C0109285009F
:1007900010928400809190018F5F809390018091EE
:1007A0009001082E000C990B8C179D0724F4809162
:1007B00090018C30C4F18091840090918500049662
:1007C00080349C4908F47AC080918400909185001F
:1007D000049676C080919001082E000C990B8C171E
:1007E0009D07C4F6E09190018E2FEE0F990BFC014E
:1007F000EE0FFF1FE80FF91FEF57FD4F808186FFB7
:10080000C9CFE09190018E2FEE0F990BFC01EE0FF6
:10081000FF1FE80FF91FEF57FD4F808160E08F73D6
:100820000E949401B7CF2091840030918500E0911F
:1008300090018E2FEE0F990BFC01EE0FFF1FE80FBA
:10084000F91FEF57FD4F81819281820F931F909383
:10085000890080938800E09190018E2FEE0F990B14
:10086000FC01EE0FFF1FE80FF91FEF57FD4F8081CE
:1008700086FF11C0E09190018E2FEE0F990BFC01C5
:10088000EE0FFF1FE80FF91FEF57FD4F808161E06A
:100890008F730E949401FF91EF91DF91CF91BF91EF
:1008A000AF919F918F917F916F915F914F913F9108
:1008B0002F910F900FBE0F901F90189580E49CE928
:1008C00090938900809388008FEF80939001E3CF0D
:1008D0001092E7011092E60188EE93E0A0E0B0E00C
:1008E0008093E8019093E901A093EA01B093EB01B2
:1008F0008AE091E09093E5018093E40185EC90E03B
:100900009093F1018093F00184EC90E09093F301D7
:100910008093F20180EC90E09093F5018093F401D4
:1009200081EC90E09093F7018093F60182EC90E0E7
:100930009093F9018093F80186EC90E09093FB018D
:100940008093FA011092FD011092FE011092FF01B6
:10095000109200021092A4011092A5011092A6011B
:100960001092A7011092A8011092A9011092AA0159
:100970001092AB011092AC011092AD011092AE0139
:100980001092AF011092B0011092B1011092B20119
:100990001092B3018091A5028C3008F45AC08FEFF9
:1009A0008093A8028091A5028C3008F465C08FEF77
:1009B0008093AB0281E196E00E94E10840E855E2B5
:1009C00060E070E0FC014083518362837383168290
:1009D000E95FFB4F11821082329611821082E09102
:1009E000F401F091F50122E02083E091F001F09113
:1009F000F1011082E091F201F091F3012FEC2083DC
:100A00001092FC01E091F801F091F90126E02083B9
:100A1000E091F601F091F701208120612083E091BF
:100A2000F601F091F701208128602083E091F60122
:100A3000F091F701208120682083E091F601F09188
:100A4000F70120812F7D20839093A7028093A60237
:100A5000089591E0980F9093A5028093A80290E0EA
:100A6000FC01EE0FFF1FE80FF91FEF57FD4F88EB5A
:100A70009BE09283818396CF91E0980F9093A5029B
:100A80008093AB0290E0FC01EE0FFF1FE80FF91F0F
:100A9000EF57FD4F88EB9BE0928381838BCFCF9301
:100AA000DF93CDB7DEB72A970FB6F894DEBF0FBE3F
:100AB000CDBF789484B5826084BD84B5816084BDE7
:100AC00085B5826085BD85B5816085BD80916E00EC
:100AD000816080936E00109281008091810082601D
:100AE000809381008091810081608093810080915A
:100AF00080008160809380008091B1008460809349
:100B0000B1008091B00081608093B00080917A0044
:100B1000846080937A0080917A00826080937A006A
:100B200080917A00816080937A0080917A00806859
:100B300080937A001092C1001092E0011092E101BE
:100B40001092E2011092E3011092A0011092A10113
:100B50001092A2011092A3010E9405026B017C0178
:100B60004B015C0128EB820E2BE0921EA11CB11CF4
:100B70000E9405026C157D058E059F0528F08616DE
:100B80009706A806B906A0F70E94E0014B015C0198
:100B9000E8EECE2EE3E0DE2EE12CF12C0E94E00107
:100BA000681979098A099B09683E73408105910596
:100BB000A8F331E0C31AD108E108F10848EE840E29
:100BC00043E0941EA11CB11CC114D104E104F10442
:100BD00029F7E091F401F091F50182E08083E09142
:100BE000F001F091F1011082E091F201F091F30136
:100BF00080E180831092FC01E091F801F091F9010D
:100C000086E08083E091F601F091F70180818061B8
:100C10008083E091F601F091F70180818860808304
:100C2000E091F601F091F701808180688083E09186
:100C3000F601F091F70180818F7D80830E9405028B
:100C40006093A0017093A1018093A2019093A301EE
:100C500088E191E00E9489020E9405026B017C01FB
:100C60004B015C016AE0860E911CA11CB11C0E9424
:100C700005026C157D058E059F0528F086169706E2
:100C8000A806B906A0F781E08093B40166E070E0A1
:100C900088EA92E00E9411026AE070E08BEA92E03A
:100CA0000E94110274EF472E55245394612C712C2D
:100CB0000E940502672B682B692B09F4DFC00E9494
:100CC000050200919A0110919B0120919C013091A5
:100CD0009D01601771078207930708F402C2009113
:100CE0009A0110919B0120919C0130919D016B0113
:100CF0007C01C01AD10AE20AF30A970186010A3F71
:100D000011052105310508F4C1C060939A01709363
:100D10009B0180939C0190939D014092AC01509265
:100D2000AD016092AE017092AF011092B0011092CD
:100D3000B1011092B2011092B3018091A40190917F
:100D4000A501A091A601B091A7018093A80190935D
:100D5000A901A093AA01B093AB010E940502609380
:100D6000A4017093A5018093A6019093A7010E940E
:100D700005026093A0017093A1018093A20190935A
:100D8000A3010E9405026B017C0189E291E00E94AF
:100D900089024AE061E070E080E090E00E94960203
:100DA00080E391E00E9489024AE0C701B6010E94F7
:100DB000960282E391E00E9489028091A4019091C1
:100DC000A501A091A601B091A701A7019601281B3A
:100DD000390B4A0B5B0BCA01B9014AE00E9496022B
:100DE00082E391E00E9489026091A4017091A501C3
:100DF0008091A6019091A7010091A8011091A901ED
:100E00002091AA013091AB01601B710B820B930BF7
:100E10004AE00E94960284E391E00E9489020E94C7
:100E200005024AE00E94960286E391E00E94890250
:100E30008DE391E00E9489020E9405024B015C0152
:100E40007C016B0132E0C30ED11CE11CF11C0E943D
:100E50000502681579058A059B0528F0C616D70690
:100E6000E806F906A0F70E9405026093A4017093BA
:100E7000A5018093A6019093A70108C00E940502D6
:100E8000623071058105910508F019CF0091A60225
:100E90001091A70284EE91E00E94E5005C01181613
:100EA00019060CF011C10E94E108D82EC92E8F83BB
:100EB0009887882E992EF12CE12C0E9405026093D0
:100EC000EC017093ED018093EE019093EF0184EEBD
:100ED00091E00E94C30097FF35C10E940502209156
:100EE000EC013091ED014091EE015091EF01621B58
:100EF000730B840B950B2091E8013091E90140912F
:100F0000EA015091EB016217730784079507F8F225
:100F10001E141F040CF0D4C0580147E0A40EB11CED
:100F2000180159EF251A5BEF350AD1018D919C917B
:100F3000A7016D2D7C2D8A0D9B1D0E94060AF101D3
:100F400080819181A701480F591F51834083D801A7
:100F500016962C91211139C030E020E0AF81B88580
:100F6000ED91B887AF83F0E0EE0FFF1FE00FF11FA8
:100F7000EF5EFB4F60817181672B39F42F5F3F4F2C
:100F8000E216F30659F72FEF3FEFF801E75FFB4F4B
:100F9000318320832F3F320709F492C0EE24E3947B
:100FA000D8011696EC92820F931F9183808332961C
:100FB000800F911FDC0117968C9190E091838083C4
:100FC000F8018681882309F47BC09801275F3B4F95
:100FD00038872F83D901ED91FC914E1B5F0B433075
:100FE00051050CF46DC0E00FF11FE084F12CFE2CD4
:100FF000EE246185E60EF11CF801E35FFB4FF18200
:10100000E082C7010296841795070CF059C0C7010A
:101010000E94E108F801E15FFB4F91838083B801F2
:10102000665F7F4FA7010E94060AF8011682EFEF64
:10103000FFEFAF81B885ED93FC93C801855F9B4FAF
:1010400026E0FC01DE01119601900D922A95E1F750
:10105000DC018D909C90F401FF27EE0FFF1FE00F45
:10106000F11FEF5EFB4F80819181009709F442C030
:10107000DC01ED91FC910190F081E02D282D9A8208
:1010800089823A814B815C816D817E810995AF8136
:10109000B8856D917C916E0D7F1D6C5F7F4FF10166
:1010A00000811181061B170B1016110634F46A0D0E
:1010B0007B1DA801C5010E94060AD1010D931C9356
:1010C0008D2D9C2D0E947D09E0E0F0E0EF2B09F4CE
:1010D000EFCD0E94F100882309F4EACD0E940000C0
:1010E000E7CD60939A0170939B0180939C0190934C
:1010F0009D01F5CD0B811C81ED81FE81FA87E98789
:1011000080E491E00E948902C4010E94DA0280E733
:1011100091E00E948902C8010E94DA028EE791E004
:101120000E948902A80169857A8584EE91E00E9477
:1011300087008CE891E00E9489028DE391E00E9493
:101140008902A5CFD4018D934D01BFEFEB1AFB0AA5
:10115000AE14BF0409F0B1CEDBCEA1E21A2EAA1B59
:10116000BB1BFD010DC0AA1FBB1FEE1FFF1FA21757
:10117000B307E407F50720F0A21BB30BE40BF50B54
:10118000661F771F881F991F1A9469F760957095DD
:10119000809590959B01AC01BD01CF010895991BED
:1011A00079E004C0991F961708F0961B881F7A955E
:1011B000C9F780950895EE0FFF1F0590F491E02D7B
:1011C00009940F931F93CF93DF938230910510F40E
:1011D00082E090E0E091B002F091B10230E020E0D6
:1011E000B0E0A0E0309799F42115310509F44AC028
:1011F000281B390B24303105D8F58A819B81611574
:10120000710589F1FB0193838283FE0111C0408146
:1012100051810281138148175907E0F04817590797
:1012200099F4109761F012960C93129713961C93F1
:101230003296CF01DF91CF911F910F9108950093C6
:10124000B0021093B102F4CF2115310551F04217CD
:10125000530738F0A901DB019A01BD01DF01F80154
:10126000C1CFEF01F9CF9093B1028093B002CDCFFF
:10127000FE01E20FF31F81939193225031093983CC
:101280002883D7CF2091AE023091AF02232B41F4B7
:1012900020910201309103013093AF022093AE02FE
:1012A00020910001309101012115310541F42DB744
:1012B0003EB74091040150910501241B350BE0918C
:1012C000AE02F091AF02E217F307A0F42E1B3F0B22
:1012D0002817390778F0AC014E5F5F4F24173507A8
:1012E00048F04E0F5F1F5093AF024093AE028193C0
:1012F00091939FCFF0E0E0E09CCFCF93DF930097F6
:10130000E9F0FC01329713821282A091B002B091F1
:10131000B102ED0130E020E01097A1F4208131818D
:10132000820F931F2091AE023091AF022817390728
:1013300009F061C0F093AF02E093AE02DF91CF916C
:101340000895EA01CE17DF07E8F54A815B819E0127
:1013500041155105B1F7E901FB83EA8349915991A0
:10136000C40FD51FEC17FD0761F4808191810296AF
:10137000840F951FE90199838883828193819B83E0
:101380008A83F0E0E0E012968D919C91139700978C
:10139000B9F52D913C911197CD010296820F931FC3
:1013A0002091AE023091AF022817390739F63097F5
:1013B00051F51092B1021092B002B093AF02A09317
:1013C000AE02BCCFD383C28340815181840F951F6D
:1013D000C817D90761F44E5F5F4F88819981480F24
:1013E000591F518340838A819B8193838283211576
:1013F000310509F0B0CFF093B102E093B0029ECF77
:10140000FD01DC01C0CF13821282D7CFFB01DC01CA
:1014100002C001900D9241505040D8F70895F894C1
:02142000FFCFFC
:101422000000B20280000000000027018700B40023
:101432007401E500C300D700564D4450565F317C1D
:10144200315F564D4450560A00564D4450455F0098
:101452003A323A007C005F564D445045000D0A0076
:101462002B3D4E6F742D696D706C656D656E746584
:101472006420436F6D6D616E6420526563656976A9
:1014820065642C204F7065726174696F6E3A20003A
:101492002C20446174612053697A653A20002C2023
:1014A200506172616D657465723A2000203D2B00B7
:107800000C94343C0C94513C0C94513C0C94513CE1
:107810000C94513C0C94513C0C94513C0C94513CB4
:107820000C94513C0C94513C0C94513C0C94513CA4
:107830000C94513C0C94513C0C94513C0C94513C94
:107840000C94513C0C94513C0C94513C0C94513C84
:107850000C94513C0C94513C0C94513C0C94513C74
:107860000C94513C0C94513C11241FBECFEFD8E036
:10787000DEBFCDBF11E0A0E0B1E0ECE9FFE702C060
:1078800005900D92A230B107D9F712E0A2E0B1E065
:1078900001C01D92AD30B107E1F70E942D3D0C945F
:1078A000CC3F0C94003C982F959595959595959582
:1078B000905D8F708A307CF0282F295A8091C0000B
:1078C00085FFFCCF9093C6008091C00085FFFCCF60
:1078D0002093C6000895282F205DF0CF982F809127
:1078E000C00085FFFCCF9093C6000895EF92FF92F1
:1078F0000F931F93EE24FF2487018091C00087FD22
:1079000017C00894E11CF11C011D111D81E4E8164B
:1079100082E4F8068FE0080780E0180770F3E09132
:107920000401F091050109958091C00087FFE9CF1E
:107930008091C6001F910F91FF90EF9008950E94D3
:10794000763C982F8091C00085FFFCCF9093C600B5
:1079500091362CF490330CF09053892F089597555D
:10796000892F08951F930E949F3C182F0E949F3CCF
:107970001295107F810F1F9108951F93182F882350
:1079800021F00E94763C1150E1F71F9108951F935A
:10799000182F0E94763C803249F0809103018F5F5E
:1079A000809303018530C1F01F9108958091C0003C
:1079B00085FFFCCF84E18093C6008091C00085FFE5
:1079C000FCCF1093C6008091C00085FFFCCF80E102
:1079D0008093C6001F910895E0910401F091050184
:1079E00009951F9108950E94763C803241F0809164
:1079F00003018F5F80930301853081F008958091AA
:107A0000C00085FFFCCF84E18093C6008091C00058
:107A100085FFFCCF80E18093C6000895E0910401CA
:107A2000F09105010995089540E951E08823A1F0FE
:107A30002D9A28EE33E0FA013197F1F721503040CA
:107A4000D1F72D9828EE33E0FA013197F1F7215064
:107A50003040D1F7815061F708953F924F925F9285
:107A60006F927F928F929F92AF92BF92CF92DF924E
:107A7000EF92FF920F931F93CF93DF93000080E16B
:107A80008093C4001092C50088E18093C10086E015
:107A90008093C2005098589A259A81E00E94143D24
:107AA00024E1F22E9EE1E92E85E9D82E0FE0C02ECA
:107AB00010E1B12EAA24A394B1E49B2EA6E58A2E50
:107AC000F2E57F2EE0E26E2E79E4572E63E5462E36
:107AD00050E5352E0E94763C8033B1F18133B9F107
:107AE000803409F46FC0813409F476C0823409F41B
:107AF00085C0853409F488C0803531F1823521F1A3
:107B0000813511F1853509F485C0863509F48DC0BC
:107B1000843609F496C0843709F403C1853709F423
:107B200072C1863709F466C0809103018F5F80932C
:107B30000301853079F6E0910401F0910501099582
:107B40000E94763C803351F60E94F33CC3CF0E94E2
:107B5000763C803249F78091C00085FFFCCFF092DF
:107B6000C6008091C00085FFFCCF9092C600809136
:107B7000C00085FFFCCF8092C6008091C00085FFC9
:107B8000FCCF7092C6008091C00085FFFCCF609250
:107B9000C6008091C00085FFFCCF5092C600809146
:107BA000C00085FFFCCF4092C6008091C00085FFD9
:107BB000FCCF3092C6008091C00085FFFCCFB09210
:107BC000C60088CF0E94763C863808F4BDCF0E945C
:107BD000763C0E94F33C7ECF0E94763C803809F4CC
:107BE0009CC0813809F40BC1823809F43CC1883942
:107BF00009F48FC080E00E94C73C6CCF84E10E94F2
:107C0000BD3C0E94F33C66CF85E00E94BD3C0E94D3
:107C1000F33C60CF0E94763C809306010E94763C44
:107C2000809307010E94F33C55CF0E94763C80333D
:107C300009F41DC183E00E94BD3C80E00E94C73C66
:107C400049CF0E94763C809309020E94763C809343
:107C5000080280910C028E7F80930C020E94763C79
:107C6000853409F415C18091080290910902892B8D
:107C700089F000E010E00E94763CF801E85FFE4FDA
:107C800080830F5F1F4F80910802909109020817AF
:107C9000190788F30E94763C803209F045CF809125
:107CA0000C0280FF01C16091060170910701660F0F
:107CB000771F7093070160930601A0910802B091AD
:107CC00009021097C9F0E8E0F1E09B01AD014E0F09
:107CD0005F1FF999FECF32BD21BD819180BDFA9A17
:107CE000F99A2F5F3F4FE417F50799F76A0F7B1F4B
:107CF00070930701609306018091C00085FFFCCF5F
:107D0000F092C6008091C00085FFFCCFB092C60003
:107D1000E1CE83E00E94C73CDDCE82E00E94C73CFA
:107D2000D9CE0E94763C809309020E94763C8093D3
:107D300008028091060190910701880F991F909386
:107D40000701809306010E94763C853409F4A6C0A1
:107D500080910C028E7F80930C020E94763C8032D0
:107D600009F0B8CE8091C00085FFFCCFF092C6002C
:107D7000609108027091090261157105B9F140E046
:107D800050E080910C02A82FA170B82FB27011C0E2
:107D9000BB2309F45CC0E0910601F0910701319624
:107DA000F0930701E09306014F5F5F4F46175707B7
:107DB000E8F4AA2369F3F999FECF209106013091E6
:107DC000070132BD21BDF89A90B58091C00085FFB2
:107DD000FCCF9093C6002F5F3F4F30930701209355
:107DE00006014F5F5F4F4617570718F38091C00099
:107DF00085FDE5CE8091C00085FFF8CFE0CE81E023
:107E00000E94C73C67CE0E94763C803209F08CCE3F
:107E10008091C00085FFFCCFF092C6008091C00029
:107E200085FFFCCFE092C6008091C00085FFFCCFAB
:107E3000D092C6008091C00085FFFCCFC092C600E2
:107E40008091C00085FFFCCFB092C60043CEE09188
:107E50000601F091070194918091C00085FFFCCF4D
:107E60009093C6009CCF80E10E94C73C33CE0E9415
:107E7000763C0E94763C182F0E94763C112309F430
:107E800083C0113009F484C08FE00E94C73C22CE29
:107E900080910C02816080930C02E5CE80910C02EF
:107EA000816080930C0259CF809107018823880F4D
:107EB000880B8A2180930B02809106019091070123
:107EC000880F991F90930701809306018091080203
:107ED00080FF09C080910802909109020196909359
:107EE000090280930802F894F999FECF1127E091D6
:107EF0000601F0910701C8E0D1E08091080290915D
:107F00000902103091F40091570001700130D9F34B
:107F100003E000935700E89500915700017001308D
:107F2000D9F301E100935700E89509901990009169
:107F3000570001700130D9F301E000935700E89534
:107F40001395103498F011270091570001700130FB
:107F5000D9F305E000935700E895009157000170B0
:107F60000130D9F301E100935700E895329602976A
:107F700009F0C7CF103011F00296E5CF112480919F
:107F8000C00085FFB9CEBCCE8EE10E94C73CA2CD19
:0C7F900085E90E94C73C9ECDF894FFCF0D
:027F9C00800063
:040000030000780081
:00000001FF