:100000000C947E000C94A6000C94A6000C94A60000
:100010000C94A6000C94A6000C94A6000C94A600C8
:100020000C94A6000C94A6000C94A6000C94680BEB
:100030000C94A6000C94A6000C94A6000C94A600A8
:100040000C941E0B0C94A6000C94EC0A0C94C60A9B
:100050000C94A6000C94A6000C94A6000C94A60088
:100060000C94A6000C94A6000000000800020100F9
:100070000003040700000000000000000000000072
:100080000000330000006600000099000000CC0072
:100090000000FF000033FF000066FF000099FF0032
:1000A00000CCFF0000FFFF0033FFFF0066FFFF00F2
:1000B00099FFFF00CCFFFF00FFFFFF0000000000E2
:1000C00023002600290000000000250028002B0046
:1000D00004040404040404040202020202020303EE
:1000E00003030303010204081020408001020408F6
:1000F0001020010204081020CC0BF11211241FBEA5
:10010000CFEFD8E0DEBFCDBF12E0A0E0B1E0ECEE73
:10011000FBE202C005900D92A430B107D9F727E0A9
:10012000A4E0B2E001C01D92A932B207E1F710E0ED
:10013000CDE7D0E004C02197FE010E949C14CC378B
:10014000D107C9F70E94410D0C94E9150C940000E9
:1001500090E080E00895DB01FC01C0962C912083A3
:1001600011962C911197218312962C91129722832C
:100170003396E817F90791F70895CF93DF93FC01C1
:10018000842F82958F704F70EB01A82FAA0FA80FB4
:10019000A60FB72FB11D6C9111965C911197129615
:1001A0009C911297442309F42AC08F3011F0ED017D
:1001B00023964295407F742F7095679F060E60E0EE
:1001C000611D3881349F030E30E0311D630F579F4E
:1001D000050E50E0511D3981349F030E30E0311D72
:1001E000530F392F379F030E30E0311D9A81792F3D
:1001F000749F070E70E0711D932F970F11242F3FEE
:10020000C1F02223E9F02F5F662321F0629F060EE2
:1002100060E0611D552321F0529F050E50E0511DF5
:10022000992331F0392F329F030E30E0311D932F87
:100230001124608351839283CF01DF91CF91089580
:1002400090E050E060E0F5CF20E0DC0160FF03C00B
:1002500001C02D932D936250E0F77040D0F70895C0
:10026000DC0117962C91179730E0F901EC51FF4F04
:10027000E4911696EC93169720533F4FF901849121
:10028000E82FF0E0EE0FFF1FEA53FF4F85919491A6
:1002900013969C938E931297F9012491E22FF0E02C
:1002A000EE0FFF1FE454FF4F8591949115969C9398
:1002B0008E9314970895AF92BF92CF92DF92EF92F0
:1002C000FF920F931F93CF93DF936C017B018B0100
:1002D000040F151FEB015E01AE18BF08C017D10750
:1002E00059F06991D601ED91FC910190F081E02DDA
:1002F000C6010995892B79F7C501DF91CF911F912F
:100300000F91FF90EF90DF90CF90BF90AF90089546
:10031000FC01538D448D252F30E0842F90E0821B0B
:10032000930B541710F0CF96089501970895FC0190
:10033000918D828D981761F0A28DAE0FBF2FB11DE8
:100340005D968C91928D9F5F9F73928F90E0089540
:100350008FEF9FEF0895FC01918D828D981731F0FA
:10036000828DE80FF11D858D90E008958FEF9FEF4E
:100370000895FC01918D228D892F90E0805C9F4F24
:10038000821B91098F73992708958EE492E00E9451
:10039000B90121E0892B09F420E0822F089580E043
:1003A00090E0892B29F00E94C50181110C94000076
:1003B0000895FC01A48DA80FB92FB11DA35ABF4FFA
:1003C0002C91848D90E001968F739927848FA68954
:1003D000B7892C93A089B1898C91837080648C93A8
:1003E000938D848D981306C00288F389E02D808157
:1003F0008F7D80830895EF92FF920F931F93CF9389
:10040000DF93EC0181E0888F9B8D8C8D98131AC04F
:10041000E889F989808185FF15C09FB7F894EE8936
:10042000FF896083E889F989808183708064808393
:100430009FBF81E090E0DF91CF911F910F91FF90DE
:10044000EF900895F62E0B8D10E00F5F1F4F0F7386
:100450001127E02E8C8D8E110CC00FB607FCFACF41
:10046000E889F989808185FFF5CFCE010E94D90105
:10047000F1CFEB8DEC0FFD2FF11DE35AFF4FF08212
:100480009FB7F8940B8FEA89FB8980818062CFCF78
:10049000CF93DF93EC01888D8823B9F0AA89BB89BB
:1004A000E889F9898C9185FD03C0808186FD0DC0A6
:1004B0000FB607FCF7CF8C9185FFF2CF808185FFC7
:1004C000EDCFCE010E94D901E9CFDF91CF91089500
:1004D00090E0FC01E859FF4F2491FC01EC51FF4FE3
:1004E0003491FC01E053FF4FE491EE23C9F0222345
:1004F00039F0233001F1A8F4213019F1223029F12B
:10050000F0E0EE0FFF1FEA53FF4FA591B4918FB7B4
:10051000F894EC91611126C030953E233C938FBF37
:1005200008952730A9F02830C9F0243049F7809188
:1005300080008F7D03C0809180008F778093800042
:10054000DFCF84B58F7784BDDBCF84B58F7DFBCFC4
:100550008091B0008F778093B000D2CF8091B000AF
:100560008F7DF9CF3E2BDACF3FB7F89480913002E0
:1005700090913102A0913202B091330226B5A89B2E
:1005800005C02F3F19F00196A11DB11D3FBFBA2F25
:10059000A92F982F8827BC01CD01620F711D811DE5
:1005A000911D42E0660F771F881F991F4A95D1F76A
:1005B00008952FB7F89460912C0270912D028091CC
:1005C0002E0290912F022FBF08950F931F93CF9368
:1005D000DF938C01EB018F3F910509F010F4182F88
:1005E00000270E94D9029B01AC01A8E1B1E00E9462
:1005F0000D149B01AC01D8010E940D14AC016627BB
:100600007727CA0133E0969587953A95E1F7977079
:100610009A0122273074232B31F02FEF37E0F901B4
:10062000E81BF90BCF01E92FEE0FEE0FF0E0EC5BCA
:10063000FE4F2081318186959281899F200D311D49
:10064000112457FF03C031952195310930582C9F53
:10065000B0013D9FC00140E03C9F700D811D941F83
:100660002D9F700D811D941F1124620F731F841F15
:10067000941FDF91CF911F910F9108954F925F9238
:100680006F927F929F92AF92BF92CF92DF92EF9242
:10069000FF920F931F93CF93DF9300D01F92CDB79C
:1006A000DEB7F82E80910C0390910D03A0910E03FC
:1006B000B0910F03892B8A2B8B2BD9F00E94B402A7
:1006C00000914A0210914B0220914C0230914D0250
:1006D000601B710B820B930B00910C0310910D03A7
:1006E00020910E0330910F03601771078207930763
:1006F000C8F20E94B40260934A0270934B02809346
:100700004C0290934D02E0911403F0911503309741
:1007100059F04091100350911103609112037091B0
:1007200013038F2D0995F82E0091ED021091EE0222
:100730004F2C512C712C612C0115110509F45EC050
:10074000D8011C96EC901C9780910A0390910B03A2
:100750008436910510F41C961C92D801ED91FC9101
:10076000A280B38019821A821B82FF2089F1F801CE
:100770003696D12CC12C2191222319F192809920F7
:1007800001F130E050E040E02F5F3F4F4F4F5F4FAF
:10079000C301B2010E9478149B01AC01892D90E045
:1007A000B0E0A0E0BC01CD016F5F7F4F8F4F9F4F46
:1007B0000E947814A1E0B0E0AC0FBD1FAC0DBD1DD0
:1007C0008C93BFEFCB1ADB0A83E0C816D10499F6ED
:1007D000D8011D964D915C911E9712966D917C915A
:1007E0009E012F5F3F4FC801F5010995D8011C9666
:1007F000EC921C9714960D911C919ECF809148020B
:10080000909149028C010F5F1F4F10934902009392
:10081000480249978CF10E94D9029B01AC0188EEF5
:1008200093E0089FB001099F700D189F700D11246F
:10083000072E000C880B990BC0904402D090450203
:10084000E0904602F09047022C193D094E095F09DD
:100850000E94181430930B0320930A03109249024C
:10086000109248020E94D90260934402709345029C
:1008700080934602909347020F900F900F90DF9164
:10088000CF911F910F91FF90EF90DF90CF90BF908D
:10089000AF909F907F906F905F904F9008952F92B0
:1008A0003F924F925F926F927F928F929F92AF9200
:1008B000BF92CF92DF92EF92FF920F931F93CF934D
:1008C000DF93CDB7DEB729970FB6F894DEBF0FBE22
:1008D000CDBF898749835A836B837C830091ED0266
:1008E0001091EE02BDE78B2E912CA12CB12C01159D
:1008F000110509F46BC0D801ED91FC910084F185DC
:10090000E02DC80109951C01D8011296ED91FC91CA
:10091000C12CD12C7601412C512C320120E030E049
:10092000A901009791F06081260F311D411D511DD5
:100930006181460E511C611C711C6281C60ED11C66
:10094000E11CF11C01973396ECCFA0E5B0E00E94CA
:100950000D146D837E838F839887A7E3B0E0A30196
:1009600092010E940D142B013C01ABE4B0E0A70101
:1009700096010E940D142D813E814F815885C32E12
:10098000D42EE52EFF2445E0429D9001439D300D7D
:100990001124C20ED31EE11CF11C8C0C9D1CAE1C3C
:1009A000BF1C452C562C672C7724840C951CA61C48
:1009B000B71C472F582F692F7727840E951EA61E28
:1009C000B71ED80114960D911C9191CFB985CB2EED
:1009D000D12CF12CE12CA7019601C501B4010E9494
:1009E0007814872E982EA92EBB2429813A814B8119
:1009F0005C8182169306A406B50668F0A7019601ED
:100A000069817A818B819C810E947814A50194016F
:100A10000E9418142987898529960FB6F894DEBF9D
:100A20000FBECDBFDF91CF911F910F91FF90EF903F
:100A3000DF90CF90BF90AF909F908F907F906F90FE
:100A40005F904F903F902F900895FC01A281B38159
:100A50009C9186812681982381E0921380E00895FD
:100A60001F93DC01FB017C9111964C91119712961A
:100A70001C91972F990F990F990F35E5292F239FD7
:100A8000020E20E0211D1124822F672F6074572F42
:100A9000507277FD6FC061115BC0511105C0922F7C
:100AA0009095892F90E004C025E5280F90E08BEA0F
:100AB0004F3F09F424C0442309F47DC0882331F05A
:100AC000382F349F030E30E0311D832F222321F075
:100AD000249F020E20E0211D992331F0392F349FED
:100AE000030E30E0311D932F1124342F3095339FA6
:100AF000030E30E0311D1124830F230F930F1F3F8E
:100B000009F421C030E0112321F0119F312D09F0AB
:100B10003F5F332309F453C0882331F0482F439FAC
:100B2000040E40E0411D842F222321F0239F020E5A
:100B300020E0211D992331F0492F439F040E40E00E
:100B4000411D942F11248083218392831F91089546
:100B500051110BC0392F2AEA329F030E30E0311DAC
:100B600011249BEA931B280F9CCF90E02095982F8F
:100B700080E09ECF611112C051110CC0392F2AEABA
:100B8000329F030E30E0311D11242BEA231B95E523
:100B9000930FEECF922F909520E08ACF511106C08F
:100BA00025E5280F9BEA981B822FF6CF2AEA280F0B
:100BB00090E0932FF8CF9FEF2FEF8FEFA0CF90E033
:100BC00020E080E0C0CF2F923F924F925F926F92D1
:100BD0007F928F929F92AF92BF92CF92DF92EF92CD
:100BE000FF920F931F93CF93DF932C01FB01D8014A
:100BF00026173707D0F4EA0119817A816C91119692
:100C00009C91119712968C91129708810C931196D2
:100C10001C93119712967C931297688399838A8309
:100C20009E2F8F2FF901292F382FEA01E880F12C10
:100C30008C9190E08E199F099695982F882797950B
:100C400087952980312C1196CC901197D12CC21800
:100C5000D308D694DC2CCC24D794C7946A80712C0A
:100C600012960C9110E0061917091695102F0027FF
:100C7000179507955901AE1ABF0A19F4AA24A3942F
:100C8000B12CB5010E9488144B01C601B5010E9428
:100C900088146B01C801B5010E948814880C991C46
:100CA000CC0CDD1C660F771FFE2CEE24D22DCC273A
:100CB000762C6624DF01AA0FBB1FAE0FBF1FA40D49
:100CC000B51D2E173F0780F0FC921196DC9311970B
:100CD00012967C921297E80CF91CCC0DDD1D660E65
:100CE000771E31961396EDCFDF91CF911F910F9123
:100CF000FF90EF90DF90CF90BF90AF909F908F903C
:100D00007F906F905F904F903F902F900895009745
:100D100039F0DC01ED91FC910280F381E02D099521
:100D20008CB58F7A8CBD08950F931F93CF93DF936B
:100D3000209105022F5F322F37703093050220FF7C
:100D40002BC020E831FD2064347009F02062205F60
:100D5000FC01EC01239600E011E06485662329F094
:100D600070E0C8010E9488146F5F6187322F369F40
:100D7000030E30E0311D1124311110C0168266239C
:100D800011F0615061873196EC17FD0731F7DF9163
:100D9000CF911F910F91089520E0D4CF3150368329
:100DA000EECFCF93DF931F92CDB7DEB7FC01239A2E
:100DB000259A229A2A989CB590659CBD9CB59C7FEB
:100DC0009CBD8DB589838EB5898389819DB59160E0
:100DD0009DBD1EBC8091040281111092040280818D
:100DE00091810F90DF91CF910C9487060F960C9410
:100DF000D1060F931F93CF93DF938C01EB01DC019E
:100E00001F968D919C91009739F0DC01ED91FC913A
:100E10000190F081E02D09958CB580658CBD8CB575
:100E20008C7F8CBD8DB581608DBD5E856D857C852B
:100E300080910402882329F0109204020DB407FE69
:100E4000FDCF1EBC80910402811103C081E080931C
:100E5000040280910402882329F0109204020DB448
:100E600007FEFDCF1EBC80910402811103C081E00A
:100E70008093040280910402882329F010920402D6
:100E80000DB407FEFDCF1EBC80910402811103C08A
:100E900081E08093040280910402882329F010925B
:100EA00004020DB407FEFDCF1EBC8091040288230E
:100EB00009F47CC0AFEF81E0909104022C813D8168
:100EC000121613060CF076C0E881F9812889398959
:100ED000E20FF31F2081279F020E20E0211D112425
:100EE0003181369F030E30E0311D11244281459F30
:100EF000040E40E0411D1124992329F010920402B0
:100F00000DB407FEFDCFAEBD90910402911102C059
:100F10008093040290910402992329F01092040214
:100F20000DB407FEFDCF4EBD90910402911102C099
:100F30008093040290910402992329F010920402F4
:100F40000DB407FEFDCF3EBD90910402911102C089
:100F50008093040290910402992329F010920402D4
:100F60000DB407FEFDCF2EBD90910402911102C079
:100F70008093040299852E81921B9E839A852F81EE
:100F8000921B9F839B852885921B98879F8528812C
:100F90003981290F311D97FD3A95398328832C819A
:100FA0003D81215031093D832C8386CF81E08093A0
:100FB000040280CF8A819B8197FD4F9625E095950D
:100FC00087952A95E1F73FEF21E040910402442301
:100FD00029F0109204020DB407FEFDCF3EBD4091F2
:100FE0000402411102C020930402409104024423F0
:100FF00029F0109204020DB407FEFDCF1EBC4091F3
:101000000402411102C020930402409104024423CF
:1010100029F0109204020DB407FEFDCF1EBC4091D2
:101020000402411102C020930402409104024423AF
:1010300029F0109204020DB407FEFDCF1EBC4091B2
:101040000402411102C020930402019708F0BDCFB1
:1010500080910402882329F0109204020DB407FE47
:10106000FDCFF80187859089DF91CF911F910F9176
:101070000C9487060F931F93CF93DF93CDB7DEB702
:1010800062970FB6F894DEBF0FBECDBF8C01F90199
:10109000DC011C968C917A8369835C834B835E832D
:1010A0004D8390819D8791819E8792819F8781301A
:1010B000F1F4CE0101960E94940683E0888B1A8A8F
:1010C000198AD801ED91FC910484F585E02DBE01CB
:1010D0006F5F7F4FC801099562960FB6F894DEBF27
:1010E0000FBECDBFDF91CF911F910F9108951C8648
:1010F0001B861A86198618861F82DFCF0F931F93CF
:10110000CF93DF93CDB7DEB762970FB6F894DEBF0B
:101110000FBECDBF8C01F901DC011C968C917A8346
:1011200069835C834B835E834D8390819D8791812E
:101130009E8792819F878130E9F4CE0101960E94BB
:101140009406188A1A8A198AD801ED91FC910484B0
:10115000F585E02DBE016F5F7F4FC801099562964E
:101160000FB6F894DEBF0FBECDBFDF91CF911F91B8
:101170000F9108951C861B861A86198618861F8271
:10118000E0CFFC01EE52FF4F3081FC01C09623817D
:10119000239F020E20E0211D23832481239F020E22
:1011A00020E0211D24832581239F020E20E0211DA4
:1011B000258311243396E817F90749F70895FC01B0
:1011C00086810280F381E02D908180958923808340
:1011D0000895FC0196810280F381E02D8081892BA6
:1011E00080830895FC01858596850895CF93DF93CC
:1011F00000D000D000D0CDB7DEB7AB011C821D827D
:101200001E82DC01ED91FC910190F081E02D1982AC
:101210001A821B829E012F5F3F4FBE016C5F7F4F82
:10122000099526960FB6F894DEBF0FBECDBFDF91AD
:10123000CF910895FC01DB013C912081230F08F43C
:101240002FEF208311963C9111972181230F08F4F1
:101250002FEF218312963C912281230F08F42FEF68
:1012600022830895409100015091010125E038E06A
:10127000429FC001439F900D529F900D1124875EA5
:10128000994C9093010180930001890F0895DF929A
:10129000EF92FF920F931F93CF93DF93C0911D079F
:1012A000D0911E07E0902307D0902407EE2DFD2D4E
:1012B00030E020E02C173D0764F4A191B1919C919E
:1012C000891709F44DC02F5F3F4FF4CF8FEF9FEF89
:1012D00019C08B01F82E2091210730912207C217E7
:1012E000D3070CF1C901880F991F28173907DCF4BF
:1012F0009093220780932107811520E4920730F70D
:10130000880F991F0E94B614909324078093230797
:10131000AE01440F551F6E2D7D2D0E94E0158E2DC0
:101320009D2D0E94521583E090E00E94B614FC01AE
:10133000F08212830183409123075091240720916A
:101340001D0730911E07C901019690931E078093D7
:101350001D07220F331F240F351FD901ED93FC9376
:1013600080E0DF91CF911F910F91FF90EF90DF9080
:101370000895FC0101900020E9F73197AF01481B67
:10138000590BBC018EE492E00C945B01CF93DF9388
:101390000E94B909EC018DE991E00E94B9098C0F16
:1013A0009D1FDF91CF9108952F923F924F925F92B0
:1013B0006F927F928F929F92AF92BF92CF92DF9265
:1013C000EF92FF920F931F93CF93DF9300D000D043
:1013D00000D0CDB7DEB77C01FB018081823329F0DC
:1013E000843309F45AC080E01CC081819281019746
:1013F000D1F70380F481E02D8081D701A152BF4F46
:10140000F701EF51FF4F882329F181E08C9310827F
:10141000F70182818093090380EA91E00E94C60966
:1014200081E026960FB6F894DEBF0FBECDBFDF91E8
:10143000CF911F910F91FF90EF90DF90CF90BF90D1
:10144000AF909F908F907F906F905F904F903F9064
:101450002F9008951C9210821092090380E00E9440
:101460003E03E090ED02F090EE02E114F10491F001
:10147000F70182819381009749F025853685B9016E
:10148000660F771F620F731F0E942401F701E4802B
:10149000F580EBCF89EA91E0C1CF818192810397FA
:1014A0000CF4A1CFA381B4818C91D701AD56BF4F6D
:1014B0008C93A381B48112968C91D701A452BF4F13
:1014C0008C930380F481E02D6F0123E0C20ED11CC8
:1014D000DF01912C812C13968C9113974FEF841A76
:1014E000940A14968F3FB9F73481958186815524EB
:1014F0005A94B12CA12C370173E3670E711CE4E000
:10150000CE0ED11CF6012180328043802081A501BE
:1015100064E0559547956A95E1F7642FA22EB12CAA
:1015200022952F70F0E18F16910480F4E52D052CA3
:10153000000CFF0BE417F50744F04FE0541629F0B8
:1015400061E0650D261708F4262F522E29823A8273
:101550004B823C839D838E8330E070E08E010F5F71
:101560001F4FAE014C5F5F4FC3010E94E305322D58
:10157000932D842D7FEFA716B10409F6F701EF51E3
:10158000FF4F81E080834DCF0E94DB151F920F92A9
:101590000FB60F9211242F933F934F935F936F9346
:1015A0007F938F939F93AF93BF93EF93FF938EE4BB
:1015B00092E00E94D901FF91EF91BF91AF919F916D
:1015C0008F917F916F915F914F913F912F910F90EC
:1015D0000FBE0F901F9018951F920F920FB60F928B
:1015E00011242F938F939F93EF93FF93E0915E02CB
:1015F000F0915F028081E0916402F091650282FDCA
:101600001BC09081809167028F5F8F732091680269
:10161000821741F0E0916702F0E0E25BFD4F958FA9
:1016200080936702FF91EF919F918F912F910F907F
:101630000FBE0F901F9018958081F4CF1F920F92CC
:101640000FB60F9211242F933F938F939F93AF93D5
:10165000BF9380912C0290912D02A0912E02B09107
:101660002F0230912B0223E0230F2D3758F50196DE
:10167000A11DB11D20932B0280932C0290932D026B
:10168000A0932E02B0932F028091300290913102EC
:10169000A0913202B09133020196A11DB11D809339
:1016A000300290933102A0933202B0933302BF9183
:1016B000AF919F918F913F912F910F900FBE0F90FF
:1016C0001F90189526E8230F0296A11DB11DD2CFB9
:1016D0001F920F920FB60F9211242F933F938F9367
:1016E0009F93EF93FF9380912A0287FF1FC0109270
:1016F00085001092840080912A028F5F80932A02D5
:1017000080912A0287FF04C080912A028C30ACF0BD
:101710008091840090918500049680349C4990F1DA
:10172000809184009091850004962EC080912A02B9
:1017300087FFE1CF80912A02DECF20918400309193
:101740008500E0912A028E2FEE0F990BFC01EE0F1F
:10175000FF1FE80FF91FEA5FFD4F81819281820F21
:10176000931F909389008093880080912A02FF91B3
:10177000EF919F918F913F912F910F900FBE0F90FE
:101780001F90189580E49CE99093890080938800CD
:101790008FEF80932A02EBCFAF92BF92CF92DF926E
:1017A000FF920F931F93CF93DF9300D01F92CDB77B
:1017B000DEB7109251021092500288EE93E0A0E042
:1017C000B0E08093520290935302A0935402B093DE
:1017D000550287E691E090934F0280934E0285EC8C
:1017E00090E090935B0280935A0284EC90E0909397
:1017F0005D0280935C0280EC90E090935F028093A6
:101800005E0281EC90E0909361028093600282EC32
:1018100090E0909363028093620286EC90E0909354
:10182000650280936402109267021092680210921F
:10183000690210926A02FF24FA94F092090310924E
:101840000B0310920A0310921503109214038FEFEA
:101850009FEFDC018093100390931103A093120378
:10186000B09313031092180310921A0710921907DD
:1018700010921C0710921B0710921E0710921D0752
:1018800082E090E0909322078093210784E090E02B
:101890000E94B614909324078093230782EE90E071
:1018A0000E94B6148C018BE991E0F801918380834A
:1018B000F2825801F3E0AF0EB11CF9821A821B824A
:1018C000BE016F5F7F4FC8018D599F4F0E94AB00D3
:1018D000F801ED56FF4F87E08083319680836801E1
:1018E00085E9C80ED11C81E0F6018083D801AA5693
:1018F000BF4F94E1E8E0F1E001900D929A95E1F795
:10190000D801A655BF4F94E1ECE1F1E001900D92B2
:101910009A95E1F7D801A254BF4F94E1E0E3F1E0DA
:1019200001900D929A95E1F7F801EE52FF4F90E881
:101930009083319610823196108231969AE090838E
:1019400031968083319696E99083319693E0908327
:1019500031969CE0908331961082319610823196B8
:101960001082319611821082329610823196108246
:101970003196108290910103911145C01092F202AC
:101980001092F102F092F502F092F602F092F70254
:10199000F092F802F092F902F092FA028093FB02C0
:1019A0001092FD021092FC021092F4021092F302C7
:1019B0008091ED029091EE02892B31F48FEE92E04E
:1019C0009093EE028093ED02E091EB02F091EC0235
:1019D000309721F08FEE92E0958384838FEE92E032
:1019E0009093EC028093EB0289E891E09093F002EF
:1019F0008093EF021092FF021092FE0210920003F9
:101A000081E0809301038EEF92E00E94D106B092B4
:101A1000F202A092F10280E190E09093FD028093A7
:101A2000FC02F801828191E08F3F09F490E09093ED
:101A3000FB02809309038FE494E090931503809355
:101A4000140388E893E1A0E0B0E080931003909342
:101A50001103A0931203B093130381E0F601808376
:101A600010931703009316030F900F900F90DF91C0
:101A7000CF911F910F91FF90DF90CF90BF90AF90CB
:101A80000895CF93DF93CDB7DEB728970FB6F894BC
:101A9000DEBF0FBECDBF789484B5826084BD84B5AF
:101AA000816084BD85B5826085BD85B5816085BD59
:101AB00080916E00816080936E0010928100809111
:101AC0008100826080938100809181008160809399
:101AD0008100809180008160809380008091B100BE
:101AE00084608093B1008091B00081608093B000E9
:101AF00080917A00846080937A0080917A0082607D
:101B000080937A0080917A00816080937A0080913E
:101B10007A00806880937A001092C100E0915E02A2
:101B2000F0915F0282E08083E0915A02F0915B02C3
:101B30001082E0915C02F0915D028FEC8083109244
:101B40006602E0916202F091630286E08083E09198
:101B50006002F0916102808180618083E091600287
:101B6000F0916102808188608083E0916002F09151
:101B70006102808180688083E0916002F09161025F
:101B800080818F7D80830091160310911703B80127
:101B900082E30E944709B80183E30E944709B80124
:101BA00084E30E944709212C3324339455245A940A
:101BB0008EE492E00E94B9016C01181619060CF02F
:101BC00080C40E94B614B82EA92E882E992EE82E15
:101BD000F92E10E000E00E94D90260935602709343
:101BE000570280935802909359028EE492E00E942B
:101BF000970197FF9AC30E94D90220915602309113
:101C000057024091580250915902621B730B840B8A
:101C1000950B209152023091530240915402509101
:101C200055026217730784079507F8F2101611061C
:101C30000CF043C48091190790911A07A8016B2DED
:101C40007A2D875E9C4F0E94E01580911907909134
:101C50001A077801E80EF91EF0921A07E0921907A8
:101C60002091180321119DC360901D0770901E07DD
:101C7000609123077091240730E020E0D401DD90CB
:101C80004D01DB0150E040E0461557050CF057C30D
:101C9000ED91FD91E081DE1609F459C34F5F5F4F6E
:101CA000F3CF0196CDC383EB91E00E94B90983EE97
:101CB00091E00E94B90981EF91E00E94B9098FEF8C
:101CC00091E00E94C609CFC3D7018C91F801EC5274
:101CD000FF4F6F01882351F08EE1D4018C9380E88F
:101CE00032978083F6011082D7011C92C8010E94AE
:101CF000C1087801B3EDEB0EF11CF70180818983F7
:101D00005A825B82D601EC91F0E0E15AFF4FEE0F70
:101D1000FF1FE00FF11F608170E06F5F7F4FCB010D
:101D2000880F991F680F791F600F711FCE010196F0
:101D30000E943005F701808189835A825B82D60137
:101D4000EC91F0E0EE0FFF1FE00FF11FE154FF4FA9
:101D5000608170E06F5F7F4FCB01880F991F680F24
:101D6000791F600F711FCE0101960E943005F701A7
:101D700080818F5F8083D6018C9190E0019687707F
:101D800099278C93809109030E943E0380E090E0A4
:101D9000892B09F40DCF0E94C501882309F406CFD1
:101DA0000E94000003CFF7018081882369F08FE053
:101DB000D4018C9380E8F801EB52FF4F8083319679
:101DC000B1E0B083F70110826801F3EDCF0ED11CB2
:101DD000580124EDA20EB11CD5018C91F60180832F
:101DE00078013801F4E16F0E711C30EF432E980139
:101DF0002B523F4F38872F83912C812CD6018C9109
:101E000089835A824B82F401EA56FF4FEE0DFF1D83
:101E1000608170E06F5F7F4FCB01880F991F680F63
:101E2000791F600F711FCE0101960E943005BFEF30
:101E30008B1A9B0AE5E08E16910401F7D6018C916E
:101E4000EF81F8859081891B8C93F5E0EF0EF11CF2
:101E50006E147F0489F6F801EA52FF4FD5018C9188
:101E60009081890F8ECFF7018081882309F18FE05F
:101E7000F40180832CE730E0C8018D599F4FF901B0
:101E80004591559165917491FC0160835183428322
:101E90002C5F3F4F0396A817B90789F788E0F80130
:101EA000EB52FF4F808382E031968083D7011C92F2
:101EB0005801412C3801B5ED6B0E711C6801EDED38
:101EC000CE0ED11C4801F3E38F0E911CF12CE12CB6
:101ED000D3018C91F6014081489E400D11242FEFD3
:101EE000B401CE0101960E94BD00F701EA56FF4FF2
:101EF000EA0DFB1DE0818E2F90E09C012F5F3F4F8C
:101F0000F901EE0FFF1FE20FF31FE00FF11F298110
:101F10002083FC01EE0FFF1FE80FF91FE00FF11FF8
:101F20008A8184838B818583FFEFEF1AFF0A25E086
:101F3000E216F10469F6439435E0A30EB11C44E0C7
:101F40004412C4CFF801EA52FF4F8081D6012D918F
:101F50003C91820F932F911DB1010E948814F601CC
:101F6000918380830FCFD7018C91F801E852FF4F06
:101F70005F01882381F08AE0D4018C933697B8EC16
:101F8000B08382E0F501808380E1319680833697CB
:101F90001082D7011C92C8010E94C108712C48010F
:101FA000B9ED8B0E911C7801EAEDEE0EF11C680183
:101FB000F3EDCF0ED11CD5012C91721608F0E2CEB4
:101FC000F4018081870D9927991F6FE070E0820FDF
:101FD000911D0E94E502D7018C93F601808191E06A
:101FE000980F90838C835D825E82BE016F5F7F4F0E
:101FF000CE0104960E943005D701EC91E00FF12F3D
:10200000F11DE655FF4F808190E001969C01220F63
:10201000331F820F931FBE016F5F7F4F800F911F91
:102020000E941A097394C7CFF70180819801285242
:102030003F4F6901882381F08CE0D4018C9380E8C4
:10204000F801EE52FF4F808382E0F901808384E142
:1020500031968083D7011C92C8010E94C108412C8F
:102060003801B9ED6B0E711C5801EAEDAE0EB11CD2
:102070007801FDEDEF0EF11C480123E3820E911C67
:10208000D6012C91421608F07DCEF3018081840D9B
:102090009927991F6FE070E0820F911D0E94E50261
:1020A000D5018C93F8012281D7014C91B401CE0166
:1020B00001960E94BD00D501EC91E00FF12FF11DBA
:1020C000E655FF4F808190E001969C01220F331F5F
:1020D000820F931FBE016F5F7F4F800F911F0E9481
:1020E0001A09F701808191810196B1010E9488143B
:1020F000918380834394C4CFD7018C91F801E85237
:10210000FF4F6F01882381F08EE1D4018C9380EA28
:102110003697808382E0F601808331962CE320831A
:1021200036971082D7011C92C8010E94C108412C29
:102130003801B9ED6B0E711C5801EAEDAE0EB11C01
:102140004801F3ED8F0E911CD6012C91421608F038
:1021500019CEF3018081840D9927991F63E070E007
:10216000820F911D0E94E502D5018C93F12CE12C88
:10217000F401808191E0980F90838C835D825E8270
:10218000BE016F5F7F4FCE0104960E943005D501DE
:102190008C91F801B5E0B89FE00DF11D1124EE0D12
:1021A000FF1DEA56FF4F808190E001969C01220FAF
:1021B000331F820F931FBE016F5F7F4F800F911FF0
:1021C0000E941A09EFEFEE1AFE0AF5E0EF16F1048D
:1021D00079F64394B9CFD7018C91882349F02CE349
:1021E000F401208380EAF801EE52FF4F80831C92B5
:1021F000C8010E94C1080E94320930E1839FC001DA
:10220000112478014BEDE40EF11CD7019C930E9440
:1022100032098C83B8ECBD835E82BE016F5F7F4F55
:10222000CE0104960E943005F701808190E001966E
:102230009C01220F331F820F931FBE016F5F7F4FE0
:10224000800F911F0E941A099DCDD7018C91882380
:1022500049F02CE3F4012083F801EE52FF4F34EBF8
:1022600030831C92C8010E94C1080E94320940E1DB
:10227000849FC00111247801ABEDEA0EF11CF70137
:102280009083D8011296DC900E943209B8016D5CEF
:102290007F4F2D2D482FCE0101960E94BD00C4CF47
:1022A000D7018C9181111C92C8010E94C108F12CA8
:1022B000E12C6801B3E3CB0ED11CB7010F2C000C4D
:1022C000880B990B0E94141320E030E040E85DE396
:1022D0000E944F1320E030E040E853E40E944F1387
:1022E0000E944914462F2FEFB601CE0101960E949D
:1022F000BD008981F80183838A8184838B818583F2
:10230000FFEFEF1AFF0A0D5F1F4F20E1E216F10405
:10231000A1F638CD59825A825B82BE016F5F7F4F32
:10232000C80103960E94AB002DCDD7018D937D018E
:102330000F5F1F4FC016D10609F04DCC77CC2F5F31
:102340003F4F0217130709F099CC2FEF3FEF30935F
:102350001C0720931B072F3F320709F4AEC0E1E0B2
:10236000E09318038C01020F131F10931C070093B6
:102370001B0785E090E00E94B614FC0112821182D6
:10238000148213829093200780931F07D801A85EC0
:10239000BC4F11968C91808380911803882309F497
:1023A0008CC0E0911B07F0911C07EE1AFF0A23E096
:1023B000E216F1040CF481C0E85EFC4F028110E0EB
:1023C000102F00276381060F111DE0911F07F09168
:1023D000200712830183C80102968E159F050CF019
:1023E0006CC0E0901F07F0902007C8010E94B6144F
:1023F000D70114969C938E931397E0911F07F09149
:102400002007A8016CE173E0838194810E94E015AC
:1024100010921803EFEFFFEFF0931C07E0931B07F8
:1024200060911F0770912007DB014C9120911D07DF
:1024300030911E07E0912307F091240790E080E09F
:10244000821793070CF02FCCA191B1915C914513A9
:1024500028CC11968D919C91DC01ED91FC9101901D
:10246000F081E02D0995E0911F07F091200783810D
:1024700094810E94521580911F07909120070E941D
:10248000521560911B0770911C07600F711F6C5FE4
:102490007F4FE0901907F0901A07E61AF70A1E140A
:1024A0001F043CF4675E7C4FA70189E193E00E9422
:1024B000E015F0921A07E09219078B2D9A2D0E94D1
:1024C00052150091160310911703F801E152FF4FC6
:1024D0008081882309F45ACC31968081811156CCB1
:1024E00031968081882309F415CF80913C028111B7
:1024F0001AC03A97C080D12CF12CE12C0E94D9024D
:1025000060933402709335028093360290933702C1
:10251000C0923802D0923902E0923A02F0923B0225
:10252000B1E0B0933C020E94D902C0903402D09036
:102530003502E0903602F09037026C197D098E0961
:102540009F09C0903802D0903902E0903A02F09092
:102550003B026C157D058E059F0508F413CC0E9487
:10256000D9026093340270933502809336029093BF
:1025700037024801E7ED8E0E911CD4018C9190E05A
:10258000B0E0A0E08093380290933902A0933A0221
:10259000B0933B027801B5E9EB0EF11CF7018081A5
:1025A000882351F019821A821B82BE016F5F7F4F10
:1025B000C80103960E94AB00D801AD56BF4FEC9105
:1025C000E93008F0DFCBF0E0E851FD4E0C949C14AC
:1025D000640ED30E330FB30F14107C10EB102511C3
:1025E0005011CF93DF93D0E0C0E08091230790910A
:1025F000240720911D0730911E07C217D30774F4DA
:102600009E01220F331F820F931FDC01ED91FC917D
:10261000818192810E9452152196E7CFDF91CF915F
:102620000C945215E89409C097FB3EF49095809560
:10263000709561957F4F8F4F9F4F9923A9F0F92F88
:1026400096E9BB279395F695879577956795B79506
:10265000F111F8CFFAF4BB0F11F460FF1BC06F5FEC
:102660007F4F8F4F9F4F16C0882311F096E911C0FE
:10267000772321F09EE8872F762F05C0662371F01F
:1026800096E8862F70E060E02AF09A95660F771F33
:10269000881FDAF7880F9695879597F908950E9415
:1026A00062130C94D3130E94C51338F00E94CC130C
:1026B00020F0952311F00C94BC130C94C213112438
:1026C0000C9407140E94E41370F3959FC1F3950FC7
:1026D00050E0551F629FF001729FBB27F00DB11DA6
:1026E000639FAA27F00DB11DAA1F649F6627B00D36
:1026F000A11D661F829F2227B00DA11D621F739F1F
:10270000B00DA11D621F839FA00D611D221F749F2C
:102710003327A00D611D231F849F600D211D822F73
:10272000762F6A2F11249F5750409AF0F1F088239A
:102730004AF0EE0FFF1FBB1F661F771F881F9150C7
:102740005040A9F79E3F510580F00C94BC130C94A7
:1027500007145F3FE4F3983ED4F386957795679529
:10276000B795F795E7959F5FC1F7FE2B880F911DF1
:102770009695879597F9089597F99F6780E870E097
:1027800060E008959FEF80EC089500240A941616E7
:10279000170618060906089500240A94121613064F
:1027A000140605060895092E0394000C11F48823DD
:1027B00052F0BB0F40F4BF2B11F460FF04C06F5FF9
:1027C0007F4F8F4F9F4F089557FD9058440F551FCF
:1027D00059F05F3F71F04795880F97FB991F61F0A3
:1027E0009F3F79F087950895121613061406551F1A
:1027F000F2CF4695F1DF08C0161617061806991F86
:10280000F1CF86957105610508940895E894BB277A
:1028100066277727CB0197F908950E943A14A59F60
:10282000900DB49F900DA49F800D911D11240895CB
:10283000A1E21A2EAA1BBB1BFD010DC0AA1FBB1FC4
:10284000EE1FFF1FA217B307E407F50720F0A21B36
:10285000B30BE40BF50B661F771F881F991F1A94A3
:1028600069F760957095809590959B01AC01BD01CD
:10287000CF010895A29FB001B39FC001A39F700D27
:10288000811D1124911DB29F700D811D1124911D78
:1028900008950E94EC1388F09F5798F0B92F99275C
:1028A000B751B0F0E1F0660F771F881F991F1AF03B
:1028B000BA95C9F714C0B13091F00E940614B1E086
:1028C00008950C940614672F782F8827B85F39F085
:1028D000B93FCCF3869577956795B395D9F73EF4D4
:1028E00090958095709561957F4F8F4F9F4F08957C
:1028F000DB018F939F930E940D14BF91AF91A29F14
:10290000800D911DA39F900DB29F900D11240895ED
:1029100097FB072E16F4009407D077FD09D00E948C
:10292000A21407FC05D03EF4909581959F4F089521
:10293000709561957F4F0895EE0FFF1F0590F491FC
:10294000E02D0994AA1BBB1B51E107C0AA1FBB1FA6
:10295000A617B70710F0A61BB70B881F991F5A952B
:10296000A9F780959095BC01CD0108950F931F9311
:10297000CF93DF938230910510F482E090E0E091F4
:102980002707F091280730E020E0B0E0A0E0309782
:1029900099F42115310509F44AC0281B390B24305C
:1029A0003105D8F58A819B816115710589F1FB019B
:1029B00093838283FE0111C0408151810281138182
:1029C00048175907E0F04817590799F4109761F034
:1029D00012960C93129713961C933296CF01DF91A7
:1029E000CF911F910F910895009327071093280707
:1029F000F4CF2115310551F04217530738F0A901E2
:102A0000DB019A01BD01DF01F801C1CFEF01F9CF70
:102A10009093280780932707CDCFFE01E20FF31F85
:102A2000819391932250310939832883D7CF209104
:102A3000250730912607232B41F420910401309182
:102A4000050130932607209325072091020130913C
:102A500003012115310541F42DB73EB74091060120
:102A600050910701241B350BE0912507F0912607B3
:102A7000E217F307A0F42E1B3F0B2817390778F055
:102A8000AC014E5F5F4F2417350748F04E0F5F1FB4
:102A90005093260740932507819391939FCFF0E0B1
:102AA000E0E09CCFCF93DF930097E9F0FC013297F1
:102AB00013821282A0912707B0912807ED0130E020
:102AC00020E01097A1F420813181820F931F209183
:102AD0002507309126072817390709F061C0F093C0
:102AE0002607E0932507DF91CF910895EA01CE17DD
:102AF000DF07E8F54A815B819E0141155105B1F779
:102B0000E901FB83EA8349915991C40FD51FEC1762
:102B1000FD0761F4808191810296840F951FE90180
:102B200099838883828193819B838A83F0E0E0E0AC
:102B300012968D919C9113970097B9F52D913C9128
:102B40001197CD010296820F931F20912507309196
:102B500026072817390739F6309751F510922807BC
:102B600010922707B0932607A0932507BCCFD383E5
:102B7000C28340815181840F951FC817D90761F422
:102B80004E5F5F4F88819981480F591F5183408361
:102B90008A819B81938382832115310509F0B0CF0F
:102BA000F0932807E09327079ECFFD01DC01C0CFFB
:102BB00013821282D7CF81E090E0F8940C94E9154B
:102BC000FB01DC0102C001900D9241505040D8F74A
:102BD000089510E0CDE7D0E004C0FE010E949C14EF
:0C2BE0002196CE37D107C9F7F894FFCF3B
:102BEC0039050000290780000001020304050709CC
:102BFC000B0D06080A0C0E0F101112130001020324
:102C0C00040B0C0D0E05060708090A0F1213111000
:102C1C00010506110207081003090A0F040B0C1317
:102C2C00000D0E1200003100F9183000FB302C00A2
:102C3C001C472600825A1F006D6A170041760E0051
:102C4C00897D0400000000FB015B0188014802B98A
:102C5C00019701AB0100000000C40AC40AC40AF6C3
:102C6C0008F208A800000000007E083A08F606F6F4
:102C7C0008F208A800F90600000000D4090D0A00AB
:102C8C004C4544733A204F6E004C4544733A204FE8
:102C9C006666002B3D4E6F742D696D706C656D65AD
:102CAC006E74656420436F6D6D616E642052656354
:102CBC0065697665642C204F7065726174696F6EFE
:102CCC003A20002C20446174612053697A653A20C3
:102CDC00002C20506172616D657465723A20002081
:042CEC003D2B00007C
:107800000C94343C0C94513C0C94513C0C94513CE1
:107810000C94513C0C94513C0C94513C0C94513CB4
:107820000C94513C0C94513C0C94513C0C94513CA4
:107830000C94513C0C94513C0C94513C0C94513C94
:107840000C94513C0C94513C0C94513C0C94513C84
:107850000C94513C0C94513C0C94513C0C94513C74
:107860000C94513C0C94513C11241FBECFEFD8E036
:10787000DEBFCDBF11E0A0E0B1E0ECE9FFE702C060
:1078800005900D92A230B107D9F712E0A2E0B1E065
:1078900001C01D92AD30B107E1F70E942D3D0C945F
:1078A000CC3F0C94003C982F959595959595959582
:1078B000905D8F708A307CF0282F295A8091C0000B
:1078C00085FFFCCF9093C6008091C00085FFFCCF60
:1078D0002093C6000895282F205DF0CF982F809127
:1078E000C00085FFFCCF9093C6000895EF92FF92F1
:1078F0000F931F93EE24FF2487018091C00087FD22
:1079000017C00894E11CF11C011D111D81E4E8164B
:1079100082E4F8068FE0080780E0180770F3E09132
:107920000401F091050109958091C00087FFE9CF1E
:107930008091C6001F910F91FF90EF9008950E94D3
:10794000763C982F8091C00085FFFCCF9093C600B5
:1079500091362CF490330CF09053892F089597555D
:10796000892F08951F930E949F3C182F0E949F3CCF
:107970001295107F810F1F9108951F93182F882350
:1079800021F00E94763C1150E1F71F9108951F935A
:10799000182F0E94763C803249F0809103018F5F5E
:1079A000809303018530C1F01F9108958091C0003C
:1079B00085FFFCCF84E18093C6008091C00085FFE5
:1079C000FCCF1093C6008091C00085FFFCCF80E102
:1079D0008093C6001F910895E0910401F091050184
:1079E00009951F9108950E94763C803241F0809164
:1079F00003018F5F80930301853081F008958091AA
:107A0000C00085FFFCCF84E18093C6008091C00058
:107A100085FFFCCF80E18093C6000895E0910401CA
:107A2000F09105010995089540E951E08823A1F0FE
:107A30002D9A28EE33E0FA013197F1F721503040CA
:107A4000D1F72D9828EE33E0FA013197F1F7215064
:107A50003040D1F7815061F708953F924F925F9285
:107A60006F927F928F929F92AF92BF92CF92DF924E
:107A7000EF92FF920F931F93CF93DF93000080E16B
:107A80008093C4001092C50088E18093C10086E015
:107A90008093C2005098589A259A81E00E94143D24
:107AA00024E1F22E9EE1E92E85E9D82E0FE0C02ECA
:107AB00010E1B12EAA24A394B1E49B2EA6E58A2E50
:107AC000F2E57F2EE0E26E2E79E4572E63E5462E36
:107AD00050E5352E0E94763C8033B1F18133B9F107
:107AE000803409F46FC0813409F476C0823409F41B
:107AF00085C0853409F488C0803531F1823521F1A3
:107B0000813511F1853509F485C0863509F48DC0BC
:107B1000843609F496C0843709F403C1853709F423
:107B200072C1863709F466C0809103018F5F80932C
:107B30000301853079F6E0910401F0910501099582
:107B40000E94763C803351F60E94F33CC3CF0E94E2
:107B5000763C803249F78091C00085FFFCCFF092DF
:107B6000C6008091C00085FFFCCF9092C600809136
:107B7000C00085FFFCCF8092C6008091C00085FFC9
:107B8000FCCF7092C6008091C00085FFFCCF609250
:107B9000C6008091C00085FFFCCF5092C600809146
:107BA000C00085FFFCCF4092C6008091C00085FFD9
:107BB000FCCF3092C6008091C00085FFFCCFB09210
:107BC000C60088CF0E94763C863808F4BDCF0E945C
:107BD000763C0E94F33C7ECF0E94763C803809F4CC
:107BE0009CC0813809F40BC1823809F43CC1883942
:107BF00009F48FC080E00E94C73C6CCF84E10E94F2
:107C0000BD3C0E94F33C66CF85E00E94BD3C0E94D3
:107C1000F33C60CF0E94763C809306010E94763C44
:107C2000809307010E94F33C55CF0E94763C80333D
:107C300009F41DC183E00E94BD3C80E00E94C73C66
:107C400049CF0E94763C809309020E94763C809343
:107C5000080280910C028E7F80930C020E94763C79
:107C6000853409F415C18091080290910902892B8D
:107C700089F000E010E00E94763CF801E85FFE4FDA
:107C800080830F5F1F4F80910802909109020817AF
:107C9000190788F30E94763C803209F045CF809125
:107CA0000C0280FF01C16091060170910701660F0F
:107CB000771F7093070160930601A0910802B091AD
:107CC00009021097C9F0E8E0F1E09B01AD014E0F09
:107CD0005F1FF999FECF32BD21BD819180BDFA9A17
:107CE000F99A2F5F3F4FE417F50799F76A0F7B1F4B
:107CF00070930701609306018091C00085FFFCCF5F
:107D0000F092C6008091C00085FFFCCFB092C60003
:107D1000E1CE83E00E94C73CDDCE82E00E94C73CFA
:107D2000D9CE0E94763C809309020E94763C8093D3
:107D300008028091060190910701880F991F909386
:107D40000701809306010E94763C853409F4A6C0A1
:107D500080910C028E7F80930C020E94763C8032D0
:107D600009F0B8CE8091C00085FFFCCFF092C6002C
:107D7000609108027091090261157105B9F140E046
:107D800050E080910C02A82FA170B82FB27011C0E2
:107D9000BB2309F45CC0E0910601F0910701319624
:107DA000F0930701E09306014F5F5F4F46175707B7
:107DB000E8F4AA2369F3F999FECF209106013091E6
:107DC000070132BD21BDF89A90B58091C00085FFB2
:107DD000FCCF9093C6002F5F3F4F30930701209355
:107DE00006014F5F5F4F4617570718F38091C00099
:107DF00085FDE5CE8091C00085FFF8CFE0CE81E023
:107E00000E94C73C67CE0E94763C803209F08CCE3F
:107E10008091C00085FFFCCFF092C6008091C00029
:107E200085FFFCCFE092C6008091C00085FFFCCFAB
:107E3000D092C6008091C00085FFFCCFC092C600E2
:107E40008091C00085FFFCCFB092C60043CEE09188
:107E50000601F091070194918091C00085FFFCCF4D
:107E60009093C6009CCF80E10E94C73C33CE0E9415
:107E7000763C0E94763C182F0E94763C112309F430
:107E800083C0113009F484C08FE00E94C73C22CE29
:107E900080910C02816080930C02E5CE80910C02EF
:107EA000816080930C0259CF809107018823880F4D
:107EB000880B8A2180930B02809106019091070123
:107EC000880F991F90930701809306018091080203
:107ED00080FF09C080910802909109020196909359
:107EE000090280930802F894F999FECF1127E091D6
:107EF0000601F0910701C8E0D1E08091080290915D
:107F00000902103091F40091570001700130D9F34B
:107F100003E000935700E89500915700017001308D
:107F2000D9F301E100935700E89509901990009169
:107F3000570001700130D9F301E000935700E89534
:107F40001395103498F011270091570001700130FB
:107F5000D9F305E000935700E895009157000170B0
:107F60000130D9F301E100935700E895329602976A
:107F700009F0C7CF103011F00296E5CF112480919F
:107F8000C00085FFB9CEBCCE8EE10E94C73CA2CD19
:0C7F900085E90E94C73C9ECDF894FFCF0D
:027F9C00800063
:040000030000780081
:00000001FF