:100000000C947E000C94A6000C94A6000C94A60000
:100010000C94A6000C94A6000C94A6000C94A600C8
:100020000C94A6000C94A6000C94A6000C944F0B04
:100030000C94A6000C94A6000C94A6000C94A600A8
:100040000C94050B0C94A6000C94D30A0C94AD0AE6
:100050000C94A6000C94A6000C94A6000C94A60088
:100060000C94A6000C94A6000000000800020100F9
:100070000003040700000000000000000000000072
:100080000000330000006600000099000000CC0072
:100090000000FF000033FF000066FF000099FF0032
:1000A00000CCFF0000FFFF0033FFFF0066FFFF00F2
:1000B00099FFFF00CCFFFF00FFFFFF0000000000E2
:1000C00023002600290000000000250028002B0046
:1000D00004040404040404040202020202020303EE
:1000E00003030303010204081020408001020408F6
:1000F0001020010204081020B30BBA1211241FBEF5
:10010000CFEFD8E0DEBFCDBF11E0A0E0B1E0E2E686
:10011000FCE202C005900D92AE39B107D9F726E096
:10012000AEE9B1E001C01D92A33CB207E1F710E0D7
:10013000CDE7D0E004C02197FE010E94D714CC3750
:10014000D107C9F70E942A0D0C9424160C940000C4
:1001500090E080E00895CF93DF93FC01842F829597
:100160008F704F70EB01A82FAA0FA80FA60FB72F03
:10017000B11D6C9111965C91119712969C911297FA
:10018000442309F42AC08F3011F0ED0123964295E3
:10019000407F742F7095679F060E60E0611D388167
:1001A000349F030E30E0311D630F579F050E50E062
:1001B000511D3981349F030E30E0311D530F392F0B
:1001C000379F030E30E0311D9A81792F749F070EFF
:1001D00070E0711D932F970F11242F3FC1F0222340
:1001E000E9F02F5F662321F0629F060E60E0611D3B
:1001F000552321F0529F050E50E0511D992331F0F7
:10020000392F329F030E30E0311D932F112460836C
:1002100051839283CF01DF91CF91089590E050E018
:1002200060E0F5CF20E0DC0160FF03C001C02D934A
:100230002D936250E0F77040D0F70895DC011796D7
:100240002C91179730E0F901EC51FF4FE49116968D
:10025000EC93169720533F4FF9018491E82FF0E07B
:10026000EE0FFF1FEA53FF4F8591949113969C93D5
:100270008E931297F9012491E22FF0E0EE0FFF1F09
:10028000E454FF4F8591949115969C938E93149707
:100290000895AF92BF92CF92DF92EF92FF920F93A9
:1002A0001F93CF93DF936C017B018B01040F151F0C
:1002B000EB015E01AE18BF08C017D10759F0699174
:1002C000D601ED91FC910190F081E02DC6010995D8
:1002D000892B79F7C501DF91CF911F910F91FF9085
:1002E000EF90DF90CF90BF90AF900895FC01538DB9
:1002F000448D252F30E0842F90E0821B930B541700
:1003000010F0CF96089501970895FC01918D828D8C
:10031000981761F0A28DAE0FBF2FB11D5D968C9125
:10032000928D9F5F9F73928F90E008958FEF9FEF64
:100330000895FC01918D828D981731F0828DE80F20
:10034000F11D858D90E008958FEF9FEF0895FC01DA
:10035000918D228D892F90E0805C9F4F821B9109A7
:100360008F739927089588EE91E00E94A70121E0FC
:10037000892B09F420E0822F089580E090E0892BFA
:1003800029F00E94B30181110C9400000895FC0132
:10039000A48DA80FB92FB11DA35ABF4F2C91848DE6
:1003A00090E001968F739927848FA689B7892C9343
:1003B000A089B1898C91837080648C93938D848D96
:1003C000981306C00288F389E02D80818F7D808399
:1003D0000895EF92FF920F931F93CF93DF93EC0159
:1003E00081E0888F9B8D8C8D98131AC0E889F989DC
:1003F000808185FF15C09FB7F894EE89FF896083DF
:10040000E889F98980818370806480839FBF81E05F
:1004100090E0DF91CF911F910F91FF90EF900895A1
:10042000F62E0B8D10E00F5F1F4F0F731127E02E7C
:100430008C8D8E110CC00FB607FCFACFE889F989B4
:10044000808185FFF5CFCE010E94C701F1CFEB8DF2
:10045000EC0FFD2FF11DE35AFF4FF0829FB7F89488
:100460000B8FEA89FB8980818062CFCFCF93DF93A6
:10047000EC01888D8823B9F0AA89BB89E889F989BC
:100480008C9185FD03C0808186FD0DC00FB607FCF1
:10049000F7CF8C9185FFF2CF808185FFEDCFCE0124
:1004A0000E94C701E9CFDF91CF91089590E0FC0150
:1004B000E859FF4F2491FC01EC51FF4F3491FC01AE
:1004C000E053FF4FE491EE23C9F0222339F02330AB
:1004D00001F1A8F4213019F1223029F1F0E0EE0FFA
:1004E000FF1FEA53FF4FA591B4918FB7F894EC9199
:1004F000611126C030953E233C938FBF089527306D
:10050000A9F02830C9F0243049F7809180008F7D10
:1005100003C0809180008F7780938000DFCF84B507
:100520008F7784BDDBCF84B58F7DFBCF8091B0000A
:100530008F778093B000D2CF8091B0008F7DF9CFBC
:100540003E2BDACF3FB7F8948091CA019091CB014E
:10055000A091CC01B091CD0126B5A89B05C02F3F3D
:1005600019F00196A11DB11D3FBFBA2FA92F982FD9
:100570008827BC01CD01620F711D811D911D42E0D4
:10058000660F771F881F991F4A95D1F708952FB7D7
:10059000F8946091C6017091C7018091C801909153
:1005A000C9012FBF08950F931F93CF93DF938C0141
:1005B000EB018F3F910509F010F4182F00270E94DE
:1005C000C7029B01AC01A8E1B1E00E94D6139B01D8
:1005D000AC01D8010E94D613AC0166277727CA0167
:1005E00033E0969587953A95E1F797709A0122271F
:1005F0003074232B31F02FEF37E0F901E81BF90BB2
:10060000CF01E92FEE0FEE0FF0E0EC5BFE4F208103
:10061000318186959281899F200D311D112457FFCC
:1006200003C031952195310930582C9FB0013D9F71
:10063000C00140E03C9F700D811D941F2D9F700DE7
:10064000811D941F1124620F731F841F941FDF915B
:10065000CF911F910F9108954F925F926F927F9269
:100660009F92AF92BF92CF92DF92EF92FF920F9341
:100670001F93CF93DF9300D01F92CDB7DEB7F82E34
:100680008091A6029091A702A091A802B091A90220
:10069000892B8A2B8B2BD9F00E94A2020091E401B6
:1006A0001091E5012091E6013091E701601B710B8B
:1006B000820B930B0091A6021091A7022091A80231
:1006C0003091A9026017710782079307C8F20E9450
:1006D000A2026093E4017093E5018093E601909398
:1006E000E701E091AE02F091AF02309759F04091EE
:1006F000AA025091AB026091AC027091AD028F2DB5
:100700000995F82E00918702109188024F2C512CE8
:10071000712C612C0115110509F45EC0D8011C96DD
:10072000EC901C978091A4029091A50284369105CB
:1007300010F41C961C92D801ED91FC91A280B3801C
:1007400019821A821B82FF2089F1F8013696D12C7A
:10075000C12C2191222319F19280992001F130E0DE
:1007600050E040E02F5F3F4F4F4F5F4FC301B2015A
:100770000E94B3149B01AC01892D90E0B0E0A0E091
:10078000BC01CD016F5F7F4F8F4F9F4F0E94B3140D
:10079000A1E0B0E0AC0FBD1FAC0DBD1D8C93BFEF51
:1007A000CB1ADB0A83E0C816D10499F6D8011D964E
:1007B0004D915C911E9712966D917C919E012F5FD9
:1007C0003F4FC801F5010995D8011C96EC921C9782
:1007D00014960D911C919ECF8091E2019091E301BE
:1007E0008C010F5F1F4F1093E3010093E2014997C3
:1007F0008CF10E94C7029B01AC0188EE93E0089F38
:10080000B001099F700D189F700D1124072E000C68
:10081000880B990BC090DE01D090DF01E090E001E1
:10082000F090E1012C193D094E095F090E94E11386
:100830003093A5022093A4021092E3011092E201EA
:100840000E94C7026093DE017093DF018093E00194
:100850009093E1010F900F900F90DF91CF911F9136
:100860000F91FF90EF90DF90CF90BF90AF909F904F
:100870007F906F905F904F9008952F923F924F928C
:100880005F926F927F928F929F92AF92BF92CF9220
:10089000DF92EF92FF920F931F93CF93DF93CDB729
:1008A000DEB729970FB6F894DEBF0FBECDBF89879C
:1008B00049835A836B837C8300918702109188025D
:1008C000BDE78B2E912CA12CB12C0115110509F43B
:1008D0006BC0D801ED91FC910084F185E02DC80139
:1008E00009951C01D8011296ED91FC91C12CD12CD7
:1008F0007601412C512C320120E030E0A901009713
:1009000091F06081260F311D411D511D6181460E00
:10091000511C611C711C6281C60ED11CE11CF11CB2
:1009200001973396ECCFA0E5B0E00E94D6136D831B
:100930007E838F839887A7E3B0E0A30192010E9492
:10094000D6132B013C01ABE4B0E0A70196010E9455
:10095000D6132D813E814F815885C32ED42EE52E8E
:10096000FF2445E0429D9001439D300D1124C20EAD
:10097000D31EE11CF11C8C0C9D1CAE1CBF1C452C15
:10098000562C672C7724840C951CA61CB71C472F6B
:10099000582F692F7727840E951EA61EB71ED801E3
:1009A00014960D911C9191CFB985CB2ED12CF12CA1
:1009B000E12CA7019601C501B4010E94B314872E52
:1009C000982EA92EBB2429813A814B815C81821605
:1009D0009306A406B50668F0A701960169817A819D
:1009E0008B819C810E94B314A50194010E94E113A4
:1009F0002987898529960FB6F894DEBF0FBECDBF33
:100A0000DF91CF911F910F91FF90EF90DF90CF90EA
:100A1000BF90AF909F908F907F906F905F904F901E
:100A20003F902F900895FC01A281B3819C91868113
:100A30002681982381E0921380E008951F93DC01C2
:100A4000FB017C9111964C91119712961C91972F56
:100A5000990F990F990F35E5292F239F020E20E05A
:100A6000211D1124822F672F6074572F507277FD3C
:100A70006FC061115BC0511105C0922F9095892FF5
:100A800090E004C025E5280F90E08BEA4F3F09F481
:100A900024C0442309F47DC0882331F0382F349FCB
:100AA000030E30E0311D832F222321F0249F020EFC
:100AB00020E0211D992331F0392F349F030E30E0BF
:100AC000311D932F1124342F3095339F030E30E0C6
:100AD000311D1124830F230F930F1F3F09F421C0F1
:100AE00030E0112321F0119F312D09F03F5F3323B6
:100AF00009F453C0882331F0482F439F040E40E08F
:100B0000411D842F222321F0239F020E20E0211D6E
:100B1000992331F0492F439F040E40E0411D942F4B
:100B200011248083218392831F91089551110BC05A
:100B3000392F2AEA329F030E30E0311D11249BEA3F
:100B4000931B280F9CCF90E02095982F80E09ECF9C
:100B5000611112C051110CC0392F2AEA329F030EC5
:100B600030E0311D11242BEA231B95E5930FEECFC6
:100B7000922F909520E08ACF511106C025E5280FCD
:100B80009BEA981B822FF6CF2AEA280F90E0932F3A
:100B9000F8CF9FEF2FEF8FEFA0CF90E020E080E025
:100BA000C0CF2F923F924F925F926F927F928F921F
:100BB0009F92AF92BF92CF92DF92EF92FF920F93EC
:100BC0001F93CF93DF932C01FB01D8012617370722
:100BD000D0F4EA0119817A816C9111969C91119758
:100BE00012968C91129708810C9311961C93119771
:100BF00012967C931297688399838A839E2F8F2FF6
:100C0000F901292F382FEA01E880F12C8C9190E02E
:100C10008E199F099695982F8827979587952980F3
:100C2000312C1196CC901197D12CC218D308D694A0
:100C3000DC2CCC24D794C7946A80712C12960C912A
:100C400010E0061917091695102F0027179507951C
:100C50005901AE1ABF0A19F4AA24A394B12CB50104
:100C60000E94C3144B01C601B5010E94C3146B015D
:100C7000C801B5010E94C314880C991CCC0CDD1C62
:100C8000660F771FFE2CEE24D22DCC27762C6624FF
:100C9000DF01AA0FBB1FAE0FBF1FA40DB51D2E177E
:100CA0003F0780F0FC921196DC93119712967C928C
:100CB0001297E80CF91CCC0DDD1D660E771E3196DF
:100CC0001396EDCFDF91CF911F910F91FF90EF9091
:100CD000DF90CF90BF90AF909F908F907F906F905C
:100CE0005F904F903F902F900895DA01FC0190E0C3
:100CF00080E02C91208311962C91119721831296DC
:100D00002C9112972283019633966817790789F7F9
:100D10000895009739F0DC01ED91FC910280F38198
:100D2000E02D09958CB58F7A8CBD08950F931F9394
:100D3000CF93DF9320919F012F5F322F3770309335
:100D40009F0120FF2BC020E831FD2064347009F0A2
:100D50002062205FFC01EC01239600E011E0648535
:100D6000662329F070E0C8010E94C3146F5F618799
:100D7000322F369F030E30E0311D1124311110C087
:100D80001682662311F0615061873196EC17FD07DA
:100D900031F7DF91CF911F910F91089520E0D4CFCB
:100DA00031503683EECFCF93DF931F92CDB7DEB7AE
:100DB000FC01239A259A229A2A989CB590659CBD9D
:100DC0009CB59C7F9CBD8DB589838EB589838981B7
:100DD0009DB591609DBD1EBC80919E0181111092B8
:100DE0009E01808191810F90DF91CF910C948906B3
:100DF0000F960C94D3060F931F93CF93DF938C0120
:100E0000EB01DC011F968D919C91009739F0DC017C
:100E1000ED91FC910190F081E02D09958CB58065F4
:100E20008CBD8CB58C7F8CBD8DB581608DBD5E8594
:100E30006D857C8580919E01882329F010929E010A
:100E40000DB407FEFDCF1EBC80919E01811103C031
:100E500081E080939E0180919E01882329F0109269
:100E60009E010DB407FEFDCF1EBC80919E01811135
:100E700003C081E080939E0180919E01882329F028
:100E800010929E010DB407FEFDCF1EBC80919E0105
:100E9000811103C081E080939E0180919E0188238F
:100EA00029F010929E010DB407FEFDCF1EBC80916B
:100EB0009E01882309F47CC0AFEF81E090919E01F0
:100EC0002C813D81121613060CF076C0E881F98161
:100ED00028893989E20FF31F2081279F020E20E025
:100EE000211D11243181369F030E30E0311D112464
:100EF0004281459F040E40E0411D1124992329F0B1
:100F000010929E010DB407FEFDCFAEBD90919E01E3
:100F1000911102C080939E0190919E01992329F026
:100F200010929E010DB407FEFDCF4EBD90919E0123
:100F3000911102C080939E0190919E01992329F006
:100F400010929E010DB407FEFDCF3EBD90919E0113
:100F5000911102C080939E0190919E01992329F0E6
:100F600010929E010DB407FEFDCF2EBD90919E0103
:100F7000911102C080939E0199852E81921B9E83C0
:100F80009A852F81921B9F839B852885921B98872A
:100F90009F8528813981290F311D97FD3A95398325
:100FA00028832C813D81215031093D832C8386CFBC
:100FB00081E080939E0180CF8A819B8197FD4F962F
:100FC00025E0959587952A95E1F73FEF21E040913F
:100FD0009E01442329F010929E010DB407FEFDCF1F
:100FE0003EBD40919E01411102C020939E0140915F
:100FF0009E01442329F010929E010DB407FEFDCFFF
:101000001EBC40919E01411102C020939E0140915F
:101010009E01442329F010929E010DB407FEFDCFDE
:101020001EBC40919E01411102C020939E0140913F
:101030009E01442329F010929E010DB407FEFDCFBE
:101040001EBC40919E01411102C020939E01019758
:1010500008F0BDCF80919E01882329F010929E0157
:101060000DB407FEFDCFF80187859089DF91CF9100
:101070001F910F910C9489060F931F93CF93DF93C9
:10108000CDB7DEB762970FB6F894DEBF0FBECDBF07
:101090008C01F901DC011C968C917A8369835C8355
:1010A0004B835E834D8390819D8791819E87928142
:1010B0009F878130F1F4CE0101960E94960683E06D
:1010C000888B1A8A198AD801ED91FC910484F585E0
:1010D000E02DBE016F5F7F4FC801099562960FB684
:1010E000F894DEBF0FBECDBFDF91CF911F910F915E
:1010F00008951C861B861A86198618861F82DFCFE4
:101100000F931F93CF93DF93CDB7DEB762970FB6E0
:10111000F894DEBF0FBECDBF8C01F901DC011C9637
:101120008C917A8369835C834B835E834D8390814A
:101130009D8791819E8792819F878130E9F4CE01BE
:1011400001960E949606188A1A8A198AD801ED918A
:10115000FC910484F585E02DBE016F5F7F4FC801CF
:10116000099562960FB6F894DEBF0FBECDBFDF9132
:10117000CF911F910F9108951C861B861A861986A0
:1011800018861F82E0CFFC01EE5CFE4F3081FC012F
:1011900080579F4F2381239F020E20E0211D238330
:1011A0002481239F020E20E0211D24832581239F7B
:1011B000020E20E0211D258311243396E817F9073C
:1011C00049F70895FC0186810280F381E02D90812A
:1011D0008095892380830895FC0196810280F381A4
:1011E000E02D8081892B80830895FC01858596857B
:1011F0000895CF93DF9300D000D000D0CDB7DEB7F5
:10120000AB011C821D821E82DC01ED91FC910190DC
:10121000F081E02D19821A821B829E012F5F3F4FC1
:10122000BE016C5F7F4F099526960FB6F894DEBF1E
:101230000FBECDBFDF91CF910895FC01DB013C9142
:101240002081230F08F42FEF208311963C911197F2
:101250002181230F08F42FEF218312963C912281E4
:10126000230F08F42FEF228308954091000150913D
:10127000010125E038E0429FC001439F900D529F3D
:10128000900D1124875E994C909301018093000189
:10129000890F08952F923F924F925F926F927F92A3
:1012A0008F929F92AF92BF92CF92DF92EF92FF9276
:1012B0000F931F93CF93DF9300D000D000D0CDB712
:1012C000DEB77C01FB018081823321F08433D9F1C8
:1012D00080E0B6C0818192810197D1F70380F481CB
:1012E000E02D8081D701A15CBE4FF701EF5BFE4F7F
:1012F000882349F081E08C931082F70182818093EA
:10130000A30281E09DC01C9210821092A30280E093
:101310000E942C03E0908702F0908802E114F1040F
:1013200081F3F70182819381009749F02585368505
:10133000B901660F771F620F731F0E941201F70138
:10134000E480F580EBCF8181928103970CF2A38139
:10135000B4818C91D701AD50BF4F8C93A381B481E0
:1013600011968C91D701A95CBE4F8C93A381B48157
:1013700012968C91D701A45CBE4F8C930380F481AC
:10138000E02D6F0123E0C20ED11CDF01912C812CD6
:1013900013968C9113974FEF841A940A14968F3FEB
:1013A000B9F734819581868155245A94B12CA12CAA
:1013B000370173E9670E711CE4E0CE0ED11CF60113
:1013C0002180328043802081A50164E055954795B6
:1013D0006A95E1F7642FA22EB12C22952F70F0E1CF
:1013E0008F16910480F4E52D052C000CFF0BE417FB
:1013F000F50744F04FE0541629F061E0650D26171B
:1014000008F4262F522E29823A824B823C839D83F8
:101410008E8330E070E08E010F5F1F4FAE014C5F96
:101420005F4FC3010E94D105322D932D842D7FEF94
:10143000A716B10409F6F701EF5BFE4F81E0808348
:1014400026960FB6F894DEBF0FBECDBFDF91CF91C9
:101450001F910F91FF90EF90DF90CF90BF90AF90D2
:101460009F908F907F906F905F904F903F902F90C4
:101470000895DF92EF92FF920F931F93CF93DF9324
:10148000C091B706D091B806E090BD06D090BE06D8
:10149000EE2DFD2D30E020E02C173D0764F4A191E6
:1014A000B1919C91891709F44DC02F5F3F4FF4CF44
:1014B0008FEF9FEF19C08B01F82E2091BB06309162
:1014C000BC06C217D3070CF1C901880F991F281752
:1014D0003907DCF49093BC068093BB06811520E4A9
:1014E000920730F7880F991F0E94F1149093BE065F
:1014F0008093BD06AE01440F551F6E2D7D2D0E94B9
:101500001B168E2D9D2D0E948D1583E090E00E946C
:10151000F114FC01F082128301834091BD065091C9
:10152000BE062091B7063091B806C9010196909386
:10153000B8068093B706220F331F240F351FD90139
:10154000ED93FC9380E0DF91CF911F910F91FF907D
:10155000EF90DF9008950E9416161F920F920FB61B
:101560000F9211242F933F934F935F936F937F9329
:101570008F939F93AF93BF93EF93FF9388EE91E088
:101580000E94C701FF91EF91BF91AF919F918F9101
:101590007F916F915F914F913F912F910F900FBE6F
:1015A0000F901F9018951F920F920FB60F92112453
:1015B0002F938F939F93EF93FF93E091F801F09116
:1015C000F9018081E091FE01F091FF0182FD1BC0D5
:1015D0009081809101028F5F8F73209102028217A8
:1015E00041F0E0910102F0E0E851FE4F958F8093C9
:1015F0000102FF91EF919F918F912F910F900FBE5C
:101600000F901F9018958081F4CF1F920F920FB604
:101610000F9211242F933F938F939F93AF93BF9378
:101620008091C6019091C701A091C801B091C901F4
:101630003091C50123E0230F2D3758F50196A11DE8
:10164000B11D2093C5018093C6019093C701A0935B
:10165000C801B093C9018091CA019091CB01A091BA
:10166000CC01B091CD010196A11DB11D8093CA019D
:101670009093CB01A093CC01B093CD01BF91AF91DA
:101680009F918F913F912F910F900FBE0F901F90C0
:10169000189526E8230F0296A11DB11DD2CF1F92E7
:1016A0000F920FB60F9211242F933F938F939F9316
:1016B000EF93FF938091C40187FF1FC010928500B4
:1016C000109284008091C4018F5F8093C401809147
:1016D000C40187FF04C08091C4018C30ACF08091BC
:1016E000840090918500049680349C4990F180910B
:1016F00084009091850004962EC08091C40187FFDC
:10170000E1CF8091C401DECF20918400309185002B
:10171000E091C4018E2FEE0F990BFC01EE0FFF1F1D
:10172000E80FF91FE056FE4F81819281820F931FCF
:1017300090938900809388008091C401FF91EF917C
:101740009F918F913F912F910F900FBE0F901F90FF
:10175000189580E49CE990938900809388008FEF2E
:101760008093C401EBCFAF92BF92CF92DF92FF92F2
:101770000F931F93CF93DF9300D01F92CDB7DEB7A7
:101780001092EB011092EA0188EE93E0A0E0B0E045
:101790008093EC019093ED01A093EE01B093EF01E3
:1017A00087E691E09093E9018093E80185EC90E071
:1017B0009093F5018093F40184EC90E09093F7010D
:1017C0008093F60180EC90E09093F9018093F8010A
:1017D00081EC90E09093FB018093FA0182EC90E021
:1017E0009093FD018093FC0186EC90E09093FF01C3
:1017F0008093FE01109201021092020210920302E5
:1018000010920402FF24FA94F092A3021092A5020F
:101810001092A4021092AF021092AE028FEF9FEFCF
:10182000DC018093AA029093AB02A093AC02B09328
:10183000AD021092B2021092B4061092B30610924A
:10184000B6061092B5061092B8061092B70682E05E
:1018500090E09093BC068093BB0684E090E00E94E9
:10186000F1149093BE068093BD0682E491E00E943D
:10187000F1148C018BE991E0F80191838083F2826D
:101880005801F3E0AF0EB11CF9821A821B82AE013F
:101890004F5F5F4F60E170E0C8018D539F4F0E9422
:1018A0007506F801ED50FF4F87E080833196808305
:1018B000680185EFC80ED11C81E0F6018083D80154
:1018C000AA50BF4F94E1E8E0F1E001900D929A95A3
:1018D000E1F7D801A65FBE4F94E1ECE1F1E00190A1
:1018E0000D929A95E1F7D801A25EBE4F94E1E0E334
:1018F000F1E001900D929A95E1F7F801EE5CFE4F50
:1019000090E89083319610823196108231969AE059
:10191000908331968083319696E99083319693E057
:10192000908331969CE0908331961082319610829C
:101930003196108231961182108232961082319641
:1019400010823196108290919B02911145C01092A5
:101950008C0210928B02F0928F02F0929002F09221
:101960009102F0929202F0929302F092940280938C
:101970009502109297021092960210928E02109287
:101980008D028091870290918802892B31F489E839
:1019900092E09093880280938702E0918502F09113
:1019A0008602309721F089E892E09583848389E864
:1019B00092E0909386028093850289E891E090936B
:1019C0008A028093890210929902109298021092D2
:1019D0009A0281E080939B0288E992E00E94D306FC
:1019E000B0928C02A0928B0280E390E090939702D9
:1019F00080939602F801828191E08F3F09F490E094
:101A0000909395028093A3028DE394E09093AF02AC
:101A10008093AE0288E893E1A0E0B0E08093AA0250
:101A20009093AB02A093AC02B093AD0281E0F601BB
:101A300080831093B1020093B0020F900F900F902B
:101A4000DF91CF911F910F91FF90DF90CF90BF90CA
:101A5000AF900895CF93DF93CDB7DEB728970FB639
:101A6000F894DEBF0FBECDBF789484B5826084BD8C
:101A700084B5816084BD85B5826085BD85B5816092
:101A800085BD80916E00816080936E001092810010
:101A900080918100826080938100809181008160CB
:101AA000809381008091800081608093800080918C
:101AB000B10084608093B1008091B0008160809318
:101AC000B00080917A00846080937A0080917A00DF
:101AD000826080937A0080917A00816080937A009E
:101AE00080917A00806880937A001092C100E09122
:101AF000F801F091F90182E08083E091F401F09126
:101B0000F5011082E091F601F091F7018FEC8083EE
:101B100010920002E091FC01F091FD0186E08083CB
:101B2000E091FA01F091FB01808180618083E09176
:101B3000FA01F091FB01808188608083E091FA01D5
:101B4000F091FB01808180688083E091FA01F0913F
:101B5000FB0180818F7D80830091B0021091B102E2
:101B6000B80182E30E94390AB80183E30E94390A6E
:101B7000B80184E30E94390A212C3324339455247C
:101B80005A9488EE91E00E94A7016C01181619067C
:101B90000CF061C40E94F114B82EA92E882E992E43
:101BA000E82EF92E10E000E00E94C7026093F001D9
:101BB0007093F1018093F2019093F30188EE91E02C
:101BC0000E94850197FF7CC30E94C7022091F0010B
:101BD0003091F1014091F2015091F301621B730BBE
:101BE000840B950B2091EC013091ED014091EE01B9
:101BF0005091EF016217730784079507F8F21016EA
:101C000011060CF024C48091B3069091B406A8018B
:101C10006B2D7A2D8D549D4F0E941B168091B3061B
:101C20009091B4067801E80EF91EF092B406E092A5
:101C3000B3062091B20221117FC36091B706709163
:101C4000B806D090BD06C090BE0630E020E0D401BA
:101C50007D904D01AD2DBC2D50E040E0461757075B
:101C60000CF038C3ED91FD91E0817E1609F43AC382
:101C70004F5F5F4FF3CF0196AEC3D8018C91F30154
:101C8000EC5CFE4F7F01882339F080E83297808337
:101C9000D7011C92F8011082C3010E94C30883017E
:101CA0000D5C1E4FD8018C9189835A825B82D701CB
:101CB000EC91F0E0E157FF4FEE0FFF1FE60DF71D2F
:101CC000608170E06F5F7F4FCB01880F991F680FB5
:101CD000791F660D771DCE0101960E941E05F80141
:101CE000808189835A825B82D701EC91F0E0EE0F0C
:101CF000FF1FE60DF71DE15EFE4F608170E06F5F34
:101D00007F4FCB01880F991F680F791F660D771DD4
:101D1000CE0101960E941E05F80180818F5F8083AD
:101D2000D7018C9190E0019668E170E00E94C314A5
:101D3000F70180838091A3020E942C0320E030E011
:101D4000232B09F41ECF0E94B301882309F417CF77
:101D50000E94000014CFD8018C91882351F080E8B4
:101D6000F301EB5CFE4F80833196B1E0B083F80164
:101D700010827301FDECEF1AFEEFFF0A63012CECF9
:101D8000C21A2EEFD20AD6018C91F701808383010B
:101D90004301F4E18F0E911C30EF432E93012B5C35
:101DA0003E4F38872F83B12CA12CD7018C9189838A
:101DB0005A824B82F501EA50FF4FE00FF11F60811C
:101DC00070E06F5F7F4FCB01880F991F680F791FFD
:101DD000660D771DCE0101960E941E05BFEFAB1A5E
:101DE000BB0AE5E0AE16B10401F7D7018C91EF8193
:101DF000F8859081891B8C930B5F1F4F801691068D
:101E000091F6F301EA5CFE4FD6018C919081890F27
:101E10008C9390CFF80180818823F1F02CE730E09B
:101E2000C3018D539F4FF90145915591659174916F
:101E3000FC016083518342832C5F3F4F0396A817B8
:101E4000B90789F788E0F301EB5CFE4F808382E0FD
:101E500031968083D8011C926301412C4301BBEC75
:101E60008B1ABEEF9B0A7301E3ECEE1AEEEFFE0A4B
:101E70005301F3E9AF0EB11C10E000E0D4018C91E6
:101E8000F7014081489E400D11242FEFB501CE018E
:101E900001960E94AB00F801EA50FF4FEC0DFD1DCA
:101EA000E0818E2F90E09C012F5F3F4FF901EE0FF4
:101EB000FF1FE20FF31FE60DF71D29812083FC01B0
:101EC000EE0FFF1FE80FF91FE60DF71D8A818483CF
:101ED0008B8185830F5F1F4F0530110579F6439481
:101EE000F5E0CF0ED11C24E04212C6CFF301EA5C2C
:101EF000FE4F8081D7012D913C91820F932F911D30
:101F0000B1010E94C314F7019183808313CFD801DC
:101F10008C91F301E85CFE4F6F01882369F088EC37
:101F20003697808382E0D6018C9380E13796808358
:101F300036971082F8011082C3010E94C308912CC9
:101F40005301F7ECAF1AFEEFBF0A8301065C1E4F88
:101F500073012DECE21A2EEFF20AD6012C919216A3
:101F600008F0E8CEF5018081890D9927991F6FE26D
:101F700070E0820F911D0E94D302D8018C93F7016B
:101F8000808191E0980F90838C835D825E82BE0198
:101F90006F5F7F4FCE0104960E941E05D801EC9121
:101FA000E60DF72DF11DE65FFE4F808190E0019672
:101FB0009C01220F331F820F931FBE016F5F7F4F63
:101FC000860D971D0E941D099394C7CFF80180814B
:101FD0009301285C3E4F6901882369F080E8F30192
:101FE000EE5CFE4F808382E0D9018C9384E13796CA
:101FF0008083F8011082C3010E94C308412C430171
:10200000F7EC8F1AFEEF9F0A730126ECE21A2EEF0F
:10201000F20A8301035C1E4F530133E9A30EB11C86
:10202000D6012C91421608F085CEF4018081840DF2
:102030009927991F6FE270E0820F911D0E94D302D1
:10204000D7018C93F3012281D8014C91B501CE01C7
:1020500001960E94AB00D701EC91E60DF72DF11D22
:10206000E65FFE4F808190E001969C01220F331FB6
:10207000820F931FBE016F5F7F4F860D971D0E94D9
:102080001D09F801808191810196B1010E94C3145C
:10209000918380834394C4CFD8018C91F301E85C91
:1020A000FE4F7F01882369F080EA3697808382E0C3
:1020B000D7018C938CE33796808336971082F80192
:1020C0001082C3010E94C308412C4301F7EC8F1A10
:1020D000FEEF9F0A630126ECC21A2EEFD20A5301CB
:1020E0003DECA31A3EEFB30AD7012C91421608F03B
:1020F00021CEF4018081840D9927991F63E070E05F
:10210000820F911D0E94D302D6018C9310E000E053
:10211000F501808191E0980F90838C835D825E82CF
:10212000BE016F5F7F4FCE0104960E941E05D6014F
:102130008C91F301B5E0B89FE00DF11D1124E00F83
:10214000F11FEA50FF4F808190E001969C01220F21
:10215000331F820F931FBE016F5F7F4F860D971D48
:102160000E941D090F5F1F4F0530110589F643942A
:10217000BBCFF8018081882339F080EAF301EE5C5F
:10218000FE4F8083D8011C92C3010E94C3080E94A5
:102190003509B0E38B9FC00111248301055C1E4FFC
:1021A000F80190830E9435098C8388EC8D835E82D0
:1021B000BE016F5F7F4FCE0104960E941E05D801BD
:1021C0008C9190E001969C01220F331F820F931F88
:1021D000BE016F5F7F4F860D971D0E941D09AACD1E
:1021E000F8018081882339F0F301EE5CFE4F24EB87
:1021F0002083D8011C92C3010E94C3080E943509A4
:10220000B0E38B9FC00111248301055C1E4FF801D0
:102210009083D3011296FC900E943509B3016D564C
:102220007F4F2F2D482FCE0101960E94AB00F80161
:102230008081C7CFD8018C9181111C92C3010E946B
:10224000C30810E000E07301B3E9EB0EF11CB80124
:10225000012E000C880B990B0E94DD1220E030E06B
:1022600040E452E40E94121420E030E040E853E4DD
:102270000E9418130E948414462F2FEFB701CE013D
:1022800001960E94AB008981F30183838A81848354
:102290008B8185830F5F1F4FF3E06F0E711C00333E
:1022A0001105A9F647CD59825A825B82AE014F5F74
:1022B0005F4F60E370E0C30103960E9475063ACD5C
:1022C000D7018D937D010F5F1F4FC016D10609F016
:1022D0006BCC95CC2F5F3F4F0217130709F0B7CC9B
:1022E0002FEF3FEF3093B6062093B5062F3F32070E
:1022F00009F4ADC0E1E0E093B2028C01020F131FBC
:102300001093B6060093B50685E090E00E94F114A4
:10231000FC0112821182148213829093BA06809378
:10232000B906D801AE54BD4F11968C91808380912F
:10233000B202882309F48BC0E091B506F091B6068D
:10234000EE1AFF0A23E0E216F1040CF480C0EE540A
:10235000FD4F028110E0102F00276381060F111D31
:10236000E091B906F091BA0612830183C801029682
:102370008E159F050CF06BC0E090B906F090BA0680
:10238000C8010E94F114D70114969C938E93139761
:10239000E091B906F091BA06A80166EB72E083817C
:1023A00094810E941B161092B202EFEFFFEFF093A0
:1023B000B606E093B5066091B9067091BA06DB01E6
:1023C0004C912091B7063091B806E091BD06F0918E
:1023D000BE0690E080E0821793077CF4A191B19152
:1023E0005C91451348CC11968D919C91DC01ED9147
:1023F000FC910190F081E02D0995E091B906F091F2
:10240000BA06838194810E948D158091B9069091BE
:10241000BA060E948D156091B5067091B606600FE0
:10242000711F6C5F7F4FE090B306F090B406E61A20
:10243000F70A1E141F043CF46D547D4FA70183EB73
:1024400092E00E941B16F092B406E092B3068B2D28
:102450009A2D0E948D156090B0027090B102F30128
:10246000E15CFE4F8081882309F468CC319680813D
:10247000811164CC31968081882309F414CF809136
:10248000D60181111AC03A97C080D12CF12CE12CD1
:102490000E94C7026093CE017093CF018093D00158
:1024A0009093D101C092D201D092D301E092D40195
:1024B000F092D501B1E0B093D6010E94C70200911D
:1024C000CE011091CF012091D0013091D101601B3C
:1024D000710B820B930B0091D2011091D3012091CB
:1024E000D4013091D501601771078207930708F472
:1024F00021CC0E94C7026093CE017093CF018093DC
:10250000D0019093D101F301E95CFE4F808190E00E
:10251000B0E0A0E08093D2019093D301A093D401C6
:10252000B093D50183010B501F4FF80180818823A0
:1025300061F019821A821B82AE014F5F5F4F60E328
:1025400070E0C30103960E947506D301AD50BF4FE2
:10255000EC91E93008F0EECBF0E0EF54FD4E0C9436
:10256000D7143D0EAB0E0A0F870FE60F4C10B910B3
:10257000F0101A11CF93DF93D0E0C0E08091BD0638
:102580009091BE062091B7063091B806C217D307C6
:1025900074F49E01220F331F820F931FDC01ED9113
:1025A000FC91818192810E948D152196E7CFDF9168
:1025B000CF910C948D15E89409C097FB3EF490954B
:1025C0008095709561957F4F8F4F9F4F9923A9F00C
:1025D000F92F96E9BB279395F6958795779567959B
:1025E000B795F111F8CFFAF4BB0F11F460FF1BC0DF
:1025F0006F5F7F4F8F4F9F4F16C0882311F096E972
:1026000011C0772321F09EE8872F762F05C066231F
:1026100071F096E8862F70E060E02AF09A95660FD8
:10262000771F881FDAF7880F9695879597F9089591
:102630000E942B130C949C130E948E1338F00E945E
:10264000951320F0952311F00C9485130C948B13A3
:1026500011240C94D0130E94AD1370F3959FC1F315
:10266000950F50E0551F629FF001729FBB27F00D40
:10267000B11D639FAA27F00DB11DAA1F649F662795
:10268000B00DA11D661F829F2227B00DA11D621FE4
:10269000739FB00DA11D621F839FA00D611D221F9E
:1026A000749F3327A00D611D231F849F600D211D82
:1026B000822F762F6A2F11249F5750409AF0F1F005
:1026C00088234AF0EE0FFF1FBB1F661F771F881F6E
:1026D00091505040A9F79E3F510580F00C9485130E
:1026E0000C94D0135F3FE4F3983ED4F3869577952E
:1026F0006795B795F795E7959F5FC1F7FE2B880F14
:10270000911D9695879597F9089597F99F6780E8A9
:1027100070E060E008959FEF80EC089500240A9433
:102720001616170618060906089500240A941216AC
:102730001306140605060895092E0394000C11F4DF
:10274000882352F0BB0F40F4BF2B11F460FF04C08C
:102750006F5F7F4F8F4F9F4F089557FD9058440FE5
:10276000551F59F05F3F71F04795880F97FB991FF0
:1027700061F09F3F79F087950895121613061406AD
:10278000551FF2CF4695F1DF08C01616170618063A
:10279000991FF1CF86957105610508940895E89415
:1027A000BB2766277727CB0197F908950E9403146A
:1027B000A59F900DB49F900DA49F800D911D112495
:1027C0000895A1E21A2EAA1BBB1BFD010DC0AA1F72
:1027D000BB1FEE1FFF1FA217B307E407F50720F08A
:1027E000A21BB30BE40BF50B661F771F881F991F05
:1027F0001A9469F760957095809590959B01AC014E
:10280000BD01CF010895A29FB001B39FC001A39F56
:10281000700D811D1124911DB29F700D811D112419
:10282000911D08950E9426140C949C130E949513E8
:1028300058F00E948E1340F029F45F3F29F00C9469
:10284000851351110C94D0130C948B130E94AD136B
:1028500068F39923B1F3552391F3951B550BBB27CF
:10286000AA2762177307840738F09F5F5F4F220F14
:10287000331F441FAA1FA9F335D00E2E3AF0E0E80B
:1028800032D091505040E695001CCAF72BD0FE2F55
:1028900029D0660F771F881FBB1F261737074807E9
:1028A000AB07B0E809F0BB0B802DBF01FF279358A1
:1028B0005F4F3AF09E3F510578F00C9485130C94CD
:1028C000D0135F3FE4F3983ED4F3869577956795F0
:1028D000B795F7959F5FC9F7880F911D96958795D6
:1028E00097F90895E1E0660F771F881FBB1F6217F5
:1028F00073078407BA0720F0621B730B840BBA0BB3
:10290000EE1F88F7E09508950E94B51388F09F5751
:1029100098F0B92F9927B751B0F0E1F0660F771F03
:10292000881F991F1AF0BA95C9F714C0B13091F0F9
:102930000E94CF13B1E008950C94CF13672F782F26
:102940008827B85F39F0B93FCCF3869577956795BE
:10295000B395D9F73EF490958095709561957F4F2A
:102960008F4F9F4F0895DB018F939F930E94D61343
:10297000BF91AF91A29F800D911DA39F900DB29F1B
:10298000900D1124089597FB072E16F4009407D09C
:1029900077FD09D00E94DD1407FC05D03EF4909528
:1029A00081959F4F0895709561957F4F0895EE0F23
:1029B000FF1F0590F491E02D0994AA1BBB1B51E168
:1029C00007C0AA1FBB1FA617B70710F0A61BB70B9F
:1029D000881F991F5A95A9F780959095BC01CD0144
:1029E00008950F931F93CF93DF938230910510F4D6
:1029F00082E090E0E091C106F091C20630E020E074
:102A0000B0E0A0E0309799F42115310509F44AC0EF
:102A1000281B390B24303105D8F58A819B8161153B
:102A2000710589F1FB0193838283FE0111C040810E
:102A300051810281138148175907E0F0481759075F
:102A400099F4109761F012960C93129713961C93B9
:102A50003296CF01DF91CF911F910F91089500938E
:102A6000C1061093C206F4CF2115310551F042176B
:102A7000530738F0A901DB019A01BD01DF01F8011C
:102A8000C1CFEF01F9CF9093C2068093C106CDCF9D
:102A9000FE01E20FF31F8193919322503109398394
:102AA0002883D7CF2091BF063091C006232B41F455
:102AB00020910401309105013093C0062093BF0698
:102AC00020910201309103012115310541F42DB708
:102AD0003EB74091060150910701241B350BE09150
:102AE000BF06F091C006E217F307A0F42E1B3F0BC0
:102AF0002817390778F0AC014E5F5F4F2417350770
:102B000048F04E0F5F1F5093C0064093BF0681935D
:102B100091939FCFF0E0E0E09CCFCF93DF930097BD
:102B2000E9F0FC01329713821282A091C106B091A4
:102B3000C206ED0130E020E01097A1F42081318140
:102B4000820F931F2091BF063091C00628173907C6
:102B500009F061C0F093C006E093BF06DF91CF910A
:102B60000895EA01CE17DF07E8F54A815B819E01EF
:102B700041155105B1F7E901FB83EA834991599168
:102B8000C40FD51FEC17FD0761F480819181029677
:102B9000840F951FE90199838883828193819B83A8
:102BA0008A83F0E0E0E012968D919C911397009754
:102BB000B9F52D913C911197CD010296820F931F8B
:102BC0002091BF063091C0062817390739F6309793
:102BD00051F51092C2061092C106B093C006A093A0
:102BE000BF06BCCFD383C28340815181840F951F20
:102BF000C817D90761F44E5F5F4F88819981480FEC
:102C0000591F518340838A819B819383828321153D
:102C1000310509F0B0CFF093C206E093C1069ECF14
:102C2000FD01DC01C0CF13821282D7CF81E090E09A
:102C3000F8940C942416FB01DC0102C001900D9263
:102C400041505040D8F7089510E0CDE7D0E004C0DF
:102C5000FE010E94D7142196CE37D107C9F7F89408
:022C6000FFCFA4
:102C620039050000C30680000001020304050709BC
:102C72000B0D06080A0C0E0F1011121300010203AD
:102C8200040B0C0D0E05060708090A0F121311108A
:102C9200010506110207081003090A0F040B0C13A1
:102CA200000D0E1200003100F9183000FB302C002C
:102CB2001C472600825A1F006D6A170041760E00DB
:102CC200897D0400000000E901490176013602A76E
:102CD200018501990100000000AB0AAB0AAB0AF9B9
:102CE20008F508A8000000000080083C08F806F972
:0E2CF20008F508A800FB06000000004A0900D3
:00000001FF
