:100000000C945D000C9485000C9485000C94850084
:100010000C9485000C9485000C9485000C9485004C
:100020000C9485000C9485000C9485000C94860338
:100030000C9485000C9485000C9485000C9485002C
:100040000C94E4020C9485000C9454030C942E033D
:100050000C9485000C9485000C9485000C9485000C
:100060000C9485000C94850000000008000201003B
:100070000003040700000000000000000000000072
:10008000250028002B0000000000240027002A0083
:10009000040404040404040402020202020203032E
:1000A0000303030301020408102040800102040836
:1000B0001020010204081020420411241FBECFEFBB
:1000C000D8E0DEBFCDBF11E0A0E0B1E0E2E9F1E1B0
:1000D00002C005900D92A837B107D9F722E0A8E732
:1000E000B1E001C01D92A235B207E1F710E0CDE505
:1000F000D0E004C02197FE010E949307CC35D107C0
:10010000C9F70E9416050C94C7080C94000090E0F3
:10011000FC01EC55FF4F249180579F4FFC018491C7
:10012000882399F090E0880F991FFC01EA57FF4F50
:10013000A591B491FC01E458FF4F859194918FB73C
:10014000F894EC91E22BEC938FBF0895AF92BF929D
:10015000CF92DF92EF92FF920F931F93CF93DF9393
:100160006C017B018B01040F151FEB015E01AE18C2
:10017000BF08C017D10759F06991D601ED91FC91E4
:100180000190F081E02DC6010995892B79F7C50111
:10019000DF91CF911F910F91FF90EF90DF90CF9063
:1001A000BF90AF900895FC01538D448D252F30E012
:1001B000842F90E0821B930B541710F0CF96089574
:1001C00001970895FC01918D828D981761F0A28DA1
:1001D000AE0FBF2FB11D5D968C91928D9F5F9F7367
:1001E000928F90E008958FEF9FEF0895FC01918D1D
:1001F000828D981731F0828DE80FF11D858D90E08A
:1002000008958FEF9FEF0895FC01918D228D892F26
:1002100090E0805C9F4F821B91098F73992708950E
:1002200082E891E00E94040121E0892B09F420E09A
:10023000822F089580E090E0892B29F00E94100120
:1002400081110C9400000895FC01A48DA80FB92F12
:10025000B11DA35ABF4F2C91848D90E001968F73EE
:100260009927848FA689B7892C93A089B1898C910D
:10027000837080648C93938D848D981306C002885C
:10028000F389E02D80818F7D80830895EF92FF9226
:100290000F931F93CF93DF93EC0181E0888F9B8DA9
:1002A0008C8D98131AC0E889F989808185FF15C063
:1002B0009FB7F894EE89FF896083E889F989808186
:1002C0008370806480839FBF81E090E0DF91CF9155
:1002D0001F910F91FF90EF900895F62E0B8D10E077
:1002E0000F5F1F4F0F731127E02E8C8D8E110CC0E6
:1002F0000FB607FCFACFE889F989808185FFF5CF31
:10030000CE010E942401F1CFEB8DEC0FFD2FF11DEA
:10031000E35AFF4FF0829FB7F8940B8FEA89FB896D
:1003200080818062CFCFCF93DF93EC01888D8823CB
:10033000B9F0AA89BB89E889F9898C9185FD03C048
:10034000808186FD0DC00FB607FCF7CF8C9185FF2D
:10035000F2CF808185FFEDCFCE010E942401E9CF4D
:10036000DF91CF91089590E0FC01E859FF4F24916F
:10037000FC01EC55FF4F3491FC01E057FF4FE49135
:10038000EE23C9F0222339F0233001F1A8F4213003
:1003900019F1223029F1F0E0EE0FFF1FE458FF4F72
:1003A000A591B4918FB7F894EC91611126C0309566
:1003B0003E233C938FBF08952730A9F02830C9F021
:1003C000243049F7809180008F7D03C080918000A8
:1003D0008F7780938000DFCF84B58F7784BDDBCFAC
:1003E00084B58F7DFBCF8091B0008F778093B00074
:1003F000D2CF8091B0008F7DF9CF3E2BDACF892B01
:1004000079F41092800082E0809381001092850040
:1004100010928400B19A80916F00826080936F0087
:100420000895FC0101900020E9F73197AF01481BC6
:10043000590BBC0182E891E00C94A6008F929F9228
:10044000AF92BF92CF92DF92EF92FF920F931F93E2
:10045000CF93DF93CDB7DEB7A1970FB6F894DEBF89
:100460000FBECDBF6C01990FEE08FF08F7FE41C02B
:100470006DE282E891E00E9446018C012227332739
:10048000A9012C193D094E095F0919A2CE018196D7
:100490007C019AE0892E912CA12CB12CCA01B901C2
:1004A000A50194010E946507605DF70162937F01D9
:1004B000211531054105510589F790E080E030971D
:1004C00019F0CF010E941102800F911FA1960FB663
:1004D000F894DEBF0FBECDBFDF91CF911F910F917A
:1004E000FF90EF90DF90CF90BF90AF909F908F9054
:1004F0000895A701960119A28E010F5D1F4F8AE092
:10050000C82ED12CE12CF12CCA01B901A70196010A
:100510000E946507605DF80162938F012115310526
:100520004105510589F790E080E0309779F2CF01DD
:100530000E941102CBCFCF92DF92EF92FF920F93E6
:100540001F93CF93DF9300D000D000D0CDB7DEB79C
:1005500029833A834B835C836D837E8389819A816F
:10056000C09781F5ED80FE80CB80DC80C6010E94C3
:1005700099078C01A601B7010E94BE088EE191E0A7
:100580000E9411020115110519F0C8010E94110203
:1005900085E291E00E941102C8010E943508C7015E
:1005A0000E94350881E026960FB6F894DEBF0FBE94
:1005B000CDBFDF91CF911F910F91FF90EF90DF9012
:1005C000CF90089580E0EFCF1F920F920FB60F9259
:1005D00011242F933F938F939F93AF93BF93809159
:1005E0007E0190917F01A0918001B09181013091B5
:1005F0007D0123E0230F2D3758F50196A11DB11D74
:1006000020937D0180937E0190937F01A0938001D0
:10061000B09381018091790190917A01A0917B0141
:10062000B0917C010196A11DB11D80937901909339
:100630007A01A0937B01B0937C01BF91AF919F9110
:100640008F913F912F910F900FBE0F901F90189593
:1006500026E8230F0296A11DB11DD2CF1F920F9243
:100660000FB60F9211242F933F934F935F936F9385
:100670007F938F939F93AF93BF93EF93FF9382E802
:1006800091E00E942401FF91EF91BF91AF919F9162
:100690008F917F916F915F914F913F912F910F902B
:1006A0000FBE0F901F9018951F920F920FB60F92CA
:1006B00011242F938F939F93EF93FF93E0919201D7
:1006C000F09193018081E0919801F091990182FD70
:1006D0001BC0908180919B018F5F8F7320919C0143
:1006E000821741F0E0919B01F0E0EE57FE4F958FAD
:1006F00080939B01FF91EF919F918F912F910F908C
:100700000FBE0F901F9018958081F4CF1F920F920B
:100710000FB60F9211242F933F934F935F936F93D4
:100720007F938F939F93AF93BF93CF93DF93EF9379
:10073000FF9380917801C0914302D0E087FF24C0ED
:100740001092850010928400809178018F5F8093D1
:10075000780180917801082E000C990B8C179D0769
:1007600024F4809178018C30C4F1809184009091C0
:100770008500049680349C4908F47AC080918400F6
:1007800090918500049676C080917801082E000C27
:10079000990B8C179D07C4F6E09178018E2FEE0F10
:1007A000990BFC01EE0FFF1FE80FF91FE15EFD4FF3
:1007B000808186FFC9CFE09178018E2FEE0F990BD3
:1007C000FC01EE0FFF1FE80FF91FE15EFD4F808176
:1007D00060E08F730E94B301B7CF20918400309105
:1007E0008500E09178018E2FEE0F990BFC01EE0F42
:1007F000FF1FE80FF91FE15EFD4F81819281820F9B
:10080000931F9093890080938800E09178018E2F48
:10081000EE0F990BFC01EE0FFF1FE80FF91FE15ED1
:10082000FD4F808186FF11C0E09178018E2FEE0F81
:10083000990BFC01EE0FFF1FE80FF91FE15EFD4F62
:10084000808161E08F730E94B301FF91EF91DF918E
:10085000CF91BF91AF919F918F917F916F915F9158
:100860004F913F912F910F900FBE0F901F901895B1
:1008700080E49CE990938900809388008FEF8093B7
:100880007801E3CF109285011092840188EE93E005
:10089000A0E0B0E08093860190938701A093880147
:1008A000B09389018AE091E0909383018093820163
:1008B00085EC90E090938F0180938E0184EC90E022
:1008C000909391018093900180EC90E0909393013C
:1008D0008093920181EC90E0909395018093940134
:1008E00082EC90E0909397018093960186EC90E0E3
:1008F000909399018093980110929B0110929C0112
:1009000010929D0110929E01809143028C3008F458
:1009100067C08FEF80934802809143028C3008F4C7
:1009200072C08FEF80934B0281E196E00E9499079D
:1009300040E855E260E070E0FC014083518362834F
:1009400073831682E95FFB4F118210823296118207
:100950001082E0919201F091930122E02083E091D6
:100960008E01F0918F011082E0919001F091910140
:100970002FEC208310929A01E0919601F09197015B
:1009800026E02083E0919401F0919501208120617F
:100990002083E0919401F0919501208128602083CB
:1009A000E0919401F0919501208120682083E091ED
:1009B0009401F091950120812F7D2083909347022F
:1009C0008093460282E090E00E9499072CE131E09A
:1009D000FC01318320839093450280934402089563
:1009E00091E0980F909343028093480290E0FC01BD
:1009F000EE0FFF1FE80FF91FE15EFD4F88EB9BE054
:100A00009283818389CF91E0980F909343028093E2
:100A10004B0290E0FC01EE0FFF1FE80FF91FE15EB3
:100A2000FD4F88EB9BE0928381837ECFCF93DF9352
:100A300000D000D000D0CDB7DEB7789484B5826006
:100A400084BD84B5816084BD85B5826085BD85B572
:100A5000816085BD80916E00816080936E001092F0
:100A6000810080918100826080938100809181006B
:100A700081608093810080918000816080938000FC
:100A80008091B10084608093B1008091B00081605A
:100A90008093B00080917A00846080937A00809186
:100AA0007A00826080937A0080917A0081608093DE
:100AB0007A0080917A00806880937A001092C10059
:100AC000809148028C3008F042C086E00E94870086
:100AD00080914802282F30E0F901EE0FFF1FE20F4E
:100AE000F31FE15EFD4F9081907C966090831092A1
:100AF000490210924A022CE0622F0E94870790E080
:100B0000829FB001112430E020E0AB01420F531F5F
:100B1000FA01EE0FFF1FE40FF51FE15EFD4F40816C
:100B200046FD07C02F5F3F4F2C30310571F70E9403
:100B3000FF01E09148028E2F90E0FC01EE0FFF1FB5
:100B4000E80FF91FE15EFD4F808180648083809112
:100B50004B028C3008F042C08AE00E9487008091EE
:100B60004B02282F30E0F901EE0FFF1FE20FF31FB9
:100B7000E15EFD4F9081907C9A60908310924C02D0
:100B800010924D022CE0622F0E94870790E0829F16
:100B9000B001112430E020E0AB01420F531FFA01F5
:100BA000EE0FFF1FE40FF51FE15EFD4F408146FD94
:100BB00007C02F5F3F4F2C30310571F70E94FF01B6
:100BC000E0914B028E2F90E0FC01EE0FFF1FE80F2B
:100BD000F91FE15EFD4F808180648083E0914602D1
:100BE000F09147028091440290914502EF58FB4FEB
:100BF00020813181232B11F491838083009146025F
:100C00001091470282E891E00E9404015C011816ED
:100C100019060CF01DC10E949907582E492E682E06
:100C2000792EC82ED92EF12CE12C2FB7F894809173
:100C30007E0190917F01A0918001B09181012FBF31
:100C400080938A0190938B01A0938C01B0938D01C6
:100C500082E891E00E94E20097FF2CC12FB7F89440
:100C600080917E0190917F01A0918001B0918101DE
:100C70002FBF40918A0150918B0160918C0170913E
:100C80008D01841B950BA60BB70B409186015091EB
:100C90008701609188017091890184179507A607E3
:100CA000B707B0F21E141F040CF0CEC0480167E075
:100CB000860E911C680189EFC81A8BEFD80AD601FD
:100CC0008D919C91A701652D742D880D991D0E9411
:100CD000BE08F60180819181A701480F591F5183F9
:100CE0004083D80116962C91211136C030E020E0C7
:100CF000D301ED913D01F0E0EE0FFF1FE00FF11F7A
:100D0000EF5EFB4F60817181672B39F42F5F3F4F9E
:100D1000E216F30669F72FEF3FEFF801E75FFB4FAD
:100D2000318320832F3F320709F48EC061E0D80160
:100D300016966C93820F931F918380833296800F57
:100D4000911FDC0117968C9190E091838083F801CC
:100D50008681882309F478C03801F7EF6F1AFBEF1A
:100D60007F0AD301ED91FC914E1B5F0B433051057F
:100D70000CF46AC0E00FF11FE084F12CFE2CEE248D
:100D80006185E60EF11CF801E35FFB4FF182E08222
:100D9000C7010296841795070CF056C0C7010E9440
:100DA0009907F801E15FFB4F91838083B801665F8B
:100DB0007F4FA7010E94BE08F8011682EFEFFFEFF8
:100DC000D301ED93FC93C801855F9B4F26E0FC01A6
:100DD000DE01119601900D922A95E1F7DC01AD90AC
:100DE000BC90F501FF27EE0FFF1FE00FF11FEF5E34
:100DF000FB4F808191810097C1F1DC01ED91FC9165
:100E00000190F081E02D2A2DBA82A9823A814B818E
:100E10005C816D817E810995F301608171816E0D28
:100E20007F1D6C5F7F4FD6010D911C91061B170B28
:100E30001016110634F4680D791DA801C4010E9432
:100E4000BE08F60111830083852D942D0E9435087C
:100E500080E090E0892B09F4D1CE0E941001882314
:100E600009F4CCCE0E940000C9CE0B811C812D80DC
:100E70003E8088E291E00E941102C5010E941E029C
:100E800088E591E00E941102C8010E941E0286E6D8
:100E900091E00E941102A801B10182E891E00E9454
:100EA000A60084E791E00E94110285E291E00E9491
:100EB0001102B2CFD6018D936D01BFEFEB1AFB0A81
:100EC000AE14BF0409F0B1CEEDCEA1E21A2EAA1BDA
:100ED000BB1BFD010DC0AA1FBB1FEE1FFF1FA217EA
:100EE000B307E407F50720F0A21BB30BE40BF50BE7
:100EF000661F771F881F991F1A9469F76095709570
:100F0000809590959B01AC01BD01CF010895991B7F
:100F100079E004C0991F961708F0961B881F7A95F0
:100F2000C9F780950895EE0FFF1F0590F491E02D0D
:100F300009940F931F93CF93DF938230910510F4A0
:100F400082E090E0E0915002F091510230E020E028
:100F5000B0E0A0E0309799F42115310509F44AC0BA
:100F6000281B390B24303105D8F58A819B81611506
:100F7000710589F1FB0193838283FE0111C04081D9
:100F800051810281138148175907E0F0481759072A
:100F900099F4109761F012960C93129713961C9384
:100FA0003296CF01DF91CF911F910F910895009359
:100FB000500210935102F4CF2115310551F0421720
:100FC000530738F0A901DB019A01BD01DF01F801E7
:100FD000C1CFEF01F9CF9093510280935002CDCF52
:100FE000FE01E20FF31F819391932250310939835F
:100FF0002883D7CF20914E0230914F02232B41F40A
:10100000209102013091030130934F0220934E0250
:1010100020910001309101012115310541F42DB7D6
:101020003EB74091040150910501241B350BE0911E
:101030004E02F0914F02E217F307A0F42E1B3F0B74
:101040002817390778F0AC014E5F5F4F241735073A
:1010500048F04E0F5F1F50934F0240934E02819312
:1010600091939FCFF0E0E0E09CCFCF93DF93009788
:10107000E9F0FC01329713821282A0915002B091E4
:101080005102ED0130E020E01097A1F42081318180
:10109000820F931F20914E0230914F02281739077B
:1010A00009F061C0F0934F02E0934E02DF91CF91BF
:1010B0000895EA01CE17DF07E8F54A815B819E01BA
:1010C00041155105B1F7E901FB83EA834991599133
:1010D000C40FD51FEC17FD0761F480819181029642
:1010E000840F951FE90199838883828193819B8373
:1010F0008A83F0E0E0E012968D919C91139700971F
:10110000B9F52D913C911197CD010296820F931F55
:1011100020914E0230914F022817390739F6309747
:1011200051F51092510210925002B0934F02A093C9
:101130004E02BCCFD383C28340815181840F951F5F
:10114000C817D90761F44E5F5F4F88819981480FB6
:10115000591F518340838A819B8193838283211508
:10116000310509F0B0CFF0935102E09350029ECFC9
:10117000FD01DC01C0CF13821282D7CFFB01DC015D
:1011800002C001900D9241505040D8F70895F89454
:02119000FFCF8F
:10119200000052028000000000004601A600D300B9
:1011A20093010401E200F600000000009B024543A7
:1011B200484F3A20000D0A002B3D4E6F742D696D89
:1011C200706C656D656E74656420436F6D6D616EE4
:1011D200642052656365697665642C204F70657280
:1011E2006174696F6E3A20002C204461746120534F
:1011F200697A653A20002C20506172616D657465D0
:08120200723A2000203D2B0090
:107800000C94343C0C94513C0C94513C0C94513CE1
:107810000C94513C0C94513C0C94513C0C94513CB4
:107820000C94513C0C94513C0C94513C0C94513CA4
:107830000C94513C0C94513C0C94513C0C94513C94
:107840000C94513C0C94513C0C94513C0C94513C84
:107850000C94513C0C94513C0C94513C0C94513C74
:107860000C94513C0C94513C11241FBECFEFD8E036
:10787000DEBFCDBF11E0A0E0B1E0ECE9FFE702C060
:1078800005900D92A230B107D9F712E0A2E0B1E065
:1078900001C01D92AD30B107E1F70E942D3D0C945F
:1078A000CC3F0C94003C982F959595959595959582
:1078B000905D8F708A307CF0282F295A8091C0000B
:1078C00085FFFCCF9093C6008091C00085FFFCCF60
:1078D0002093C6000895282F205DF0CF982F809127
:1078E000C00085FFFCCF9093C6000895EF92FF92F1
:1078F0000F931F93EE24FF2487018091C00087FD22
:1079000017C00894E11CF11C011D111D81E4E8164B
:1079100082E4F8068FE0080780E0180770F3E09132
:107920000401F091050109958091C00087FFE9CF1E
:107930008091C6001F910F91FF90EF9008950E94D3
:10794000763C982F8091C00085FFFCCF9093C600B5
:1079500091362CF490330CF09053892F089597555D
:10796000892F08951F930E949F3C182F0E949F3CCF
:107970001295107F810F1F9108951F93182F882350
:1079800021F00E94763C1150E1F71F9108951F935A
:10799000182F0E94763C803249F0809103018F5F5E
:1079A000809303018530C1F01F9108958091C0003C
:1079B00085FFFCCF84E18093C6008091C00085FFE5
:1079C000FCCF1093C6008091C00085FFFCCF80E102
:1079D0008093C6001F910895E0910401F091050184
:1079E00009951F9108950E94763C803241F0809164
:1079F00003018F5F80930301853081F008958091AA
:107A0000C00085FFFCCF84E18093C6008091C00058
:107A100085FFFCCF80E18093C6000895E0910401CA
:107A2000F09105010995089540E951E08823A1F0FE
:107A30002D9A28EE33E0FA013197F1F721503040CA
:107A4000D1F72D9828EE33E0FA013197F1F7215064
:107A50003040D1F7815061F708953F924F925F9285
:107A60006F927F928F929F92AF92BF92CF92DF924E
:107A7000EF92FF920F931F93CF93DF93000080E16B
:107A80008093C4001092C50088E18093C10086E015
:107A90008093C2005098589A259A81E00E94143D24
:107AA00024E1F22E9EE1E92E85E9D82E0FE0C02ECA
:107AB00010E1B12EAA24A394B1E49B2EA6E58A2E50
:107AC000F2E57F2EE0E26E2E79E4572E63E5462E36
:107AD00050E5352E0E94763C8033B1F18133B9F107
:107AE000803409F46FC0813409F476C0823409F41B
:107AF00085C0853409F488C0803531F1823521F1A3
:107B0000813511F1853509F485C0863509F48DC0BC
:107B1000843609F496C0843709F403C1853709F423
:107B200072C1863709F466C0809103018F5F80932C
:107B30000301853079F6E0910401F0910501099582
:107B40000E94763C803351F60E94F33CC3CF0E94E2
:107B5000763C803249F78091C00085FFFCCFF092DF
:107B6000C6008091C00085FFFCCF9092C600809136
:107B7000C00085FFFCCF8092C6008091C00085FFC9
:107B8000FCCF7092C6008091C00085FFFCCF609250
:107B9000C6008091C00085FFFCCF5092C600809146
:107BA000C00085FFFCCF4092C6008091C00085FFD9
:107BB000FCCF3092C6008091C00085FFFCCFB09210
:107BC000C60088CF0E94763C863808F4BDCF0E945C
:107BD000763C0E94F33C7ECF0E94763C803809F4CC
:107BE0009CC0813809F40BC1823809F43CC1883942
:107BF00009F48FC080E00E94C73C6CCF84E10E94F2
:107C0000BD3C0E94F33C66CF85E00E94BD3C0E94D3
:107C1000F33C60CF0E94763C809306010E94763C44
:107C2000809307010E94F33C55CF0E94763C80333D
:107C300009F41DC183E00E94BD3C80E00E94C73C66
:107C400049CF0E94763C809309020E94763C809343
:107C5000080280910C028E7F80930C020E94763C79
:107C6000853409F415C18091080290910902892B8D
:107C700089F000E010E00E94763CF801E85FFE4FDA
:107C800080830F5F1F4F80910802909109020817AF
:107C9000190788F30E94763C803209F045CF809125
:107CA0000C0280FF01C16091060170910701660F0F
:107CB000771F7093070160930601A0910802B091AD
:107CC00009021097C9F0E8E0F1E09B01AD014E0F09
:107CD0005F1FF999FECF32BD21BD819180BDFA9A17
:107CE000F99A2F5F3F4FE417F50799F76A0F7B1F4B
:107CF00070930701609306018091C00085FFFCCF5F
:107D0000F092C6008091C00085FFFCCFB092C60003
:107D1000E1CE83E00E94C73CDDCE82E00E94C73CFA
:107D2000D9CE0E94763C809309020E94763C8093D3
:107D300008028091060190910701880F991F909386
:107D40000701809306010E94763C853409F4A6C0A1
:107D500080910C028E7F80930C020E94763C8032D0
:107D600009F0B8CE8091C00085FFFCCFF092C6002C
:107D7000609108027091090261157105B9F140E046
:107D800050E080910C02A82FA170B82FB27011C0E2
:107D9000BB2309F45CC0E0910601F0910701319624
:107DA000F0930701E09306014F5F5F4F46175707B7
:107DB000E8F4AA2369F3F999FECF209106013091E6
:107DC000070132BD21BDF89A90B58091C00085FFB2
:107DD000FCCF9093C6002F5F3F4F30930701209355
:107DE00006014F5F5F4F4617570718F38091C00099
:107DF00085FDE5CE8091C00085FFF8CFE0CE81E023
:107E00000E94C73C67CE0E94763C803209F08CCE3F
:107E10008091C00085FFFCCFF092C6008091C00029
:107E200085FFFCCFE092C6008091C00085FFFCCFAB
:107E3000D092C6008091C00085FFFCCFC092C600E2
:107E40008091C00085FFFCCFB092C60043CEE09188
:107E50000601F091070194918091C00085FFFCCF4D
:107E60009093C6009CCF80E10E94C73C33CE0E9415
:107E7000763C0E94763C182F0E94763C112309F430
:107E800083C0113009F484C08FE00E94C73C22CE29
:107E900080910C02816080930C02E5CE80910C02EF
:107EA000816080930C0259CF809107018823880F4D
:107EB000880B8A2180930B02809106019091070123
:107EC000880F991F90930701809306018091080203
:107ED00080FF09C080910802909109020196909359
:107EE000090280930802F894F999FECF1127E091D6
:107EF0000601F0910701C8E0D1E08091080290915D
:107F00000902103091F40091570001700130D9F34B
:107F100003E000935700E89500915700017001308D
:107F2000D9F301E100935700E89509901990009169
:107F3000570001700130D9F301E000935700E89534
:107F40001395103498F011270091570001700130FB
:107F5000D9F305E000935700E895009157000170B0
:107F60000130D9F301E100935700E895329602976A
:107F700009F0C7CF103011F00296E5CF112480919F
:107F8000C00085FFB9CEBCCE8EE10E94C73CA2CD19
:0C7F900085E90E94C73C9ECDF894FFCF0D
:027F9C00800063
:040000030000780081
:00000001FF